:020000041000EA
:1000000000B5324B212058609868022188439860DF
:10001000D860186158612E4B002199600221596106
:100020000121F02299502B49196001219960352056
:1000300000F044F80222904214D00621196600F024
:1000400034F8196E01211966002018661A6600F04E
:100050002CF8196E196E196E052000F02FF8012189
:100060000842F9D1002199601B49196000215960AB
:100070001A491B48016001219960EB211966A021F2
:10008000196600F012F800219960164914480160C1
:100090000121996001BC002800D000471248134993
:1000A000086003C880F30888084703B5996A0420EC
:1000B0000142FBD001200142F8D103BD02B5186610
:1000C0001866FFF7F2FF186E186E02BD00000240BE
:1000D000000000180000070000035F00212200005C
:1000E000F4000018222000A00001001008ED00E03C
:1000F00000000000000000000000000074B24E7A12
:1001000000200420F7010010C3010010C5010010F9
:10011000C1010010C1010010C1010010C101001097
:10012000C1010010C1010010C1010010C701001081
:10013000C1010010C1010010C9010010CB01001065
:10014000CD010010CD010010CD010010CD01001037
:10015000CD010010CD010010CD010010CD01001027
:10016000CD010010CD010010CD010010CD01001017
:10017000CD010010CD010010CD010010CD01001007
:10018000CD010010CD010010CD010010CD010010F7
:10019000CD010010CD010010CD010010CD010010E7
:1001A000CD010010CD010010CD010010CD010010D7
:1001B000CD010010CD010010CD010010CD010010C7
:1001C00000BE00BE00BE00BE00BE00BEEFF3058054
:1001D000103800BEF2EB887184F50610A8F5061001
:1001E0003402001090A31AE700201F49086006C8D7
:1001F00081F3088810471D48006800282FD10DA4FE
:100200000ECC002902D000F012F8F9E71849194A7B
:10021000002000E001C19142FCD1174988471749ED
:1002200088471749884700BEFDE701C901C29A42C5
:10023000FBD37047A8F50610C0000020E40E002094
:10024000CC0307100000042000000420CC0307109A
:10025000001004200010042000000000704709482E
:1002600002F0EAFF0047000008ED00E0000000D0C7
:10027000E80E002060930020ED1900100503001027
:10028000151B00105756000006005250ABB36053C8
:100290008015061006005250861C030290150610A9
:1002A000060052505422A29DA0150610050052507F
:1002B000DE65F468CC030710F8B5C04610B5064CEF
:1002C0002378002B07D1054B002B02D0044800E017
:1002D00000BF0123237010BD0812002000000000A1
:1002E00078120610044B10B5002B03D003490448C4
:1002F00000E000BF10BDC046000000000C1200204E
:100300007812061010B504F041FA04F017FE044C00
:10031000200004F0E5F8FA20800000F0EFFCF7E799
:1003200078120610094A830094464022634410B5AF
:100330001C68C0006240C024144080225201134354
:100340001C60034B9C466044416010BD04C00140EA
:1003500000400140024B18688007C00F7047C0463C
:1003600000C0064070B5EFF3108C72B60D4D2B68CF
:10037000002BFCD0BFF35F8F0724CB08C618C05CEE
:1003800001230C40A3401C000440034207D1034357
:100390003370BFF35F8F2C608CF3108870BD10003A
:1003A00001F0D6FB2C0100D00021044B044ABFF31E
:1003B0005F8F02C39342FAD17047C046000100D05C
:1003C000800100D0044A1078431CDBB2172B00D9FF
:1003D000102313707047C046900200200123834011
:1003E000002904D0034A1360034A13607047034A8C
:1003F0001360FBE780E200E000E100E080E100E064
:10040000024B10309B688000C058704700ED00E040
:1004100070B50D00EFF3108672B60F4A1368002B0B
:10042000FCD0BFF35F8F0D4B10309B6884001B59CD
:100430000B4A934203D09D4201D001F0A1FB074B30
:100440009B681D51BFF35F8FBFF35F8F0022024B8C
:100450001A6086F3108870BD240100D000ED00E022
:10046000CD010010F0B5DE4657464E464546E0B594
:100470000C0083B0EFF3108972B6584A1368002B52
:10048000FCD0BFF35F8F564B9A68030010339F0078
:10049000D559544A9046954232D0A54243D0524E47
:1004A000AA1B2F2A2CD801228240924651464F4A3D
:1004B00012681140019151464D4A1160BFF35F8FA0
:1004C000EFF305829346002A33D101232A009A4391
:1004D00093689C4208D177E04B005B189B00F318AF
:1004E0009968A1422AD01A00062151560029F3DA50
:1004F000019B002B19D052463E4B1A603B4B1A60B1
:10050000374B9B68DD51BFF35F8FBFF35F8F0022D6
:10051000324B1A6089F3108803B0F0BCBB46B24678
:10052000A946A046F0BD1500EAE75246304B1A60D6
:10053000E6E79342C9D001F023FBC6E706215956EE
:10054000002921DB4A005018800034188046A0683A
:100550009860E079D871062020569871002824DB35
:10056000A488F01A6405241544440019E024000509
:10057000400D24022043988052181F4B9200B61859
:100580001A781970B271B3E7594600290FD1FF31BB
:1005900091711A49918018490A789A71184A9B1BDF
:1005A0005B415A43120D0A70A2E71648E3E7164A68
:1005B0001649D21A083A5002400D01439980144955
:1005C00052080A43DA8093E70621515613000029A6
:1005D000B8DA5A46002AEAD14546DCE7240100D0C1
:1005E00000ED00E0CD0100109402002000E100E0E9
:1005F00080E100E080E200E05493002001BDFFFFB5
:10060000AAAA000001BD0000CE02002000F0FFFFFA
:1006100000F8FFFF70B5EFF3058101240443EFF309
:10062000108C72B6214A1368002BFCD0BFF35F8F89
:100630001F4B05001F4AED1A6D416A43120D1E4DF6
:100640008900AE6852B27658A6421CD0062159568F
:1006500091421CD012215956914222D01E21595646
:10066000914220D02A2159560324914210D0134B95
:1006700019781A708171BFF35F8F00220B4B1A60DB
:100680008CF3108870BDAB680D4C5C50EFE7002414
:100690006100091989005B18FF2199710949998046
:1006A000E5E70124F4E70224F2E7C046240100D084
:1006B00094020020AAAA000000ED00E0549300205C
:1006C000CD01001001BDFFFF054B064A1360064A2D
:1006D000136053609360D3601361536193617047FB
:1006E0008080808000E400E004E400E0024B9C464F
:1006F00061448900016070474000003410B5040077
:10070000FFF760FE01002000FFF7F0FFFF232371D9
:10071000BFF35F8F10BDC04610B50400FFF752FE57
:1007200001002000FFF7E2FFFF23A380BFF35F8FEC
:1007300010BDC04683680B4810B5844661446244CE
:10074000090112019A18591854684B6801209C42FB
:1007500001D802D00020C0B210BD12680B689A42C6
:10076000F9D8F7E7FFFFFF0F0A4B1968EFF3108086
:1007700072B60A68002AFCD0BFF35F8F1B68BFF314
:100780005F8F00221A6080F3108840BF0020002194
:100790007047C046EC8B0020F8B557464E4645469C
:1007A000DE46E0B599460CAB1C780DAB1B78060015
:1007B00090469A460768002C11D1BC7B002C42D091
:1007C00065003B682D19033D59194B78BB73002B0D
:1007D00000D1FB7300238B704B700B7004E065003D
:1007E0003B682D19033D5919B2682A4B944642467D
:1007F000E3181B0163441A604A465A600A9A9A60D9
:100800000B9ADA6000238B704B700B707B7B9B46DE
:10081000002B2BD022005946B8687B6898473A686D
:10082000002816D05B4658465B005B445519033BD5
:10083000A870D118D35C002B00D06B705B460C7095
:100840007B73A34513D0F0BCBB46B246A946A04675
:10085000F8BD5B465B005B44033BD3189C705119A9
:10086000525D002A00D05A705B460B707C73424682
:100870004B46307D00F0BAFB051E06D05346002BD8
:1008800003D12100306800F0D5FD0E9B002BDAD09B
:100890001D70D8E7FFFFFF0FF0B5DE4657464E4606
:1008A00045460023E0B58BB00893674B8200D458CF
:1008B00000239B46099000F00FFB626806000F00C2
:1008C000EFF3108572B61368002BFCD0BFF35F8F77
:1008D00023689C465B7B9946002B00D169E0A268A7
:1008E0005A4B90464B441B01984443461A685B6838
:1008F00010001900801BB941002900DC63E0099851
:1009000000F074FB00230022984600230692079310
:1009100000239A466368BFF35F8F5A461A6085F3D7
:1009200010885346002B08D10028C4D10BB0F0BC6E
:10093000BB46B246A946A046F0BD089B41461802F8
:100940004B461843D047626806000F00EFF310854E
:1009500072B61368002BFCD0BFF35F8F002F50DB03
:1009600033003B4302D02369002B61D12368D97B3C
:10097000002907D04A00521819688C46494662443B
:10098000033A51709A7B002A01D14A469A734A462B
:10099000DA734B46E168013BCA5C0132CA545B46DC
:1009A00023616368BFF35F8F5A461A6085F310882E
:1009B00081E7002300229846002306920793002334
:1009C00000209A46A6E7002902D1002800D096E729
:1009D0000021604600F0ACFC43461A685B68069252
:1009E000079343469B689A464346DB689846E3680C
:1009F0004B44013B1B7808931B02034323610020F7
:100A000088E72369002BB1D0069A079B921BBB4154
:100A1000002B15DB594604910121039149460291AF
:100A200041460191514620000091FFF7B5FEB6E71F
:100A300000F052FA32003B0012184B41002BE9DA69
:100A40000122034B5242E5E720550020FFFFFF0F34
:100A5000FFFFFF7F10B5144C6368002B04D00A2100
:100A60001248FFF743FE10BD2300114A10212068F1
:100A700000F078FB032000F023FA032000F020FBB5
:100A800003200C4900F06CFAFFF79CFC0A4B9C46D3
:100A900003232375D0231B061B6860446375074B33
:100AA00080006060DC60DAE7DC020020EC8B002074
:100AB0003507001099080010400000342055002030
:100AC000F0B54E464546DE465746E0B585B0019343
:100AD00010AB1B78060003930023994698460092BA
:100AE0007268EFF3108B72B61368002BFCD0BFF363
:100AF0005F8F3568AC7B002C3DD067002B683F19B9
:100B0000033FDB195A78AA73002A00D1EA73B1684F
:100B1000474A8C4600980199A2181201624410605D
:100B200051600E9991600F99D16042469A705A7047
:100B30001A706B7B9A46002B67D022001900A868B8
:100B40006B6898472A68002852D0534650465B008D
:100B50005344D719033BB870D118D35C002B00D095
:100B60007B7053460C706B7354454FD0F3681B1960
:100B7000013B187800E000207368BFF35F8F4246A6
:100B80001A608BF31088002C4FD04B46002B08D1F5
:100B90000002204305B0F0BCBB46B246A946A046C1
:100BA000F0BD039B002B3ED00E9B00200F99984771
:100BB000030004000D000B4335D000290ADA009A27
:100BC000019B121BAB4100920193002B0ADB039B9C
:100BD000994685E700F080F924184D41009401956D
:100BE000002DF4DA0123134C5B4200930194EEE7ED
:100BF00053465B005344033BD3189C70D119D25D1C
:100C0000002A00D05A7053460B706C73307D009AE6
:100C1000019B00F0EBF981460028A7D02100306845
:100C200000F008FCA2E70020B4E701204042B1E751
:100C3000FFFFFF0FFFFFFF7FF0B504000D0006264A
:100C40007642F717C64636196F4100B584B08F4219
:100C500014D811D000F040F932003B00121A8B4139
:100C6000002B15DC002B3ED02000290000F068F995
:100C700004B080BCB846F0BD8642EBD90026002700
:100C800000F02AF932003B00121A8B41002BE9DDFB
:100C9000002302930193154B3200009314483B004C
:100CA000FFF70EFF0028DFDB00239846BC46114A01
:100CB000114F7B6A9C4504D8B96A8E42D4D99C45B1
:100CC000D2D11168EFF3108072B60B68002BFCD004
:100CD000BFF35F8F1368BFF35F8F4146196080F3E6
:100CE000108820BFE5E7002ABED0D1E769070010D1
:100CF000DC020020EC8B00200040054070B50600AF
:100D000000F0EAF8FA2204000D0000233000002170
:100D1000920003F0D7F900196941002902DBFFF7BF
:100D20008BFF70BD012001494042F8E7FFFFFF7FC4
:100D3000F0B5EFF30583CE46474680B505000C00BD
:100D400085B0002B12D02C4A0020536A9C4203D855
:100D5000926A0130AA4204D305B0C0BCB946B0467D
:100D6000F0BDE01A421E9041C0B2F5E7234E029357
:100D70000193234B0200009330000B00FFF7A0FE0D
:100D8000031EE0DD20BF7168EFF3108772B60A68BA
:100D9000002AFCD0BFF35F8FDAB294463068427B02
:100DA00062451DD0FF221A405100894601689144D6
:100DB00088464946414403398978002913D0F168AF
:100DC0001B0A88464244013A1278DBB29A420FD09D
:100DD0007368BFF35F8F00221A6087F31088B2E751
:100DE000FF221A40EBE732699342F1D13161EFE71C
:100DF000614600F01FFBEBE700400540DC020020ED
:100E000069070010F0B5EFF30582D6464F46464617
:100E10001000C0B51038EFF3108872B6214C23686B
:100E2000002BFCD0BFF35F8F0123190081401E4DC2
:100E30001F006963AA461D4D29601D4D2E78AC46E2
:100E40003500C5402F402B4209D1BFF35F8F27608B
:100E500088F31088E0BCBA46B146A846F0BD5346B8
:100E6000144D5F6A83005D59AF420ED3124A8E4320
:100E70009B5862461670BFF35F8F0022226088F392
:100E80001088002BE6D09847E4E70C4B92009C4674
:100E9000624413681360BFF35F8F0023236088F3FD
:100EA0001088D7E7280100D0004005403C7005407D
:100EB0005D930020F88E002094450020D03F05402F
:100EC00010B50100024A0348FFF74CFA10BDC046B6
:100ED000901206104E930020034B596A0A00986A3C
:100EE000596A8A42FAD170470040054070B5040043
:100EF0000D00124A536A1900966A536A8B42FAD15E
:100F00003000190024184D41AB4211D80ED02B00EF
:100F10000A494A6A9A42FCD307D1084A02E0516A58
:100F2000994202D1916AA142F9D370BDA642EED98D
:100F3000012301246442E5175B42E9E700400540D4
:100F4000064A536A9942FCD807D1044B02E05A6A18
:100F5000914202D19A6A8242F9D37047004005401B
:100F600070B504000D00EFF3108672B61A4A1368CC
:100F7000002BFCD0BFF35F8F002D1BD02000FFF7AC
:100F80003FFA164981420AD02000FFF741FA0121B9
:100F90002000FFF723FA0123A340114A1360114BED
:100FA000A400E550BFF35F8F00220B4B1A6086F35D
:100FB000108870BD0B4BA200D5500122A2400A49F7
:100FC00020000B7893430B700449FFF74BFA002184
:100FD0002000FFF703FAE5E7280100D0050E001016
:100FE00038600540944500205D930020F0B54F46E1
:100FF000D6464646C0B507002C4C616A0D00A66A6D
:10100000616AA942FAD18B4208D805D00120E0BC20
:10101000BA46B146A846F0BDB242F7D9EFF3108AFE
:1010200072B6234801680029FCD0BFF35F8F012509
:10103000BD4020491D4C8846097889462943C9B2DC
:101040008C46414660460870391D1B48890065631F
:101050000A51B9000B50216A0020294219D0616A57
:101060000800A66A616A8142FAD18B4219D801D17F
:10107000B24216D8CC4516D00C4B1F201D625D63C2
:1010800001230740BB400D4A1E38136043464A46C1
:101090001A70BFF35F8F0022054B1A608AF3108825
:1010A000B5E70020F5E70120F3E7C0460040054022
:1010B000280100D05D930020F88E002080E200E03F
:1010C000EFF3108C72B60A490B68002BFCD0BFF30B
:1010D0005F8F01238340074A0748136202789A43CF
:1010E0000270BFF35F8F00230B608CF31088704792
:1010F000280100D0004005405D93002070B5050038
:1011000014001600002915D00C00002A12D08068A7
:101110006B689847296800280ED073009B196200FD
:10112000033B1219CB18033A9C7088188A5C002A7A
:1011300015D10670200070BD63001B197200033BBF
:101140009219CB18033A9E7088188A5C002A02D143
:1011500004703400EEE75A7004703400EAE75A7005
:101160000670E7E730B583600023CCB243730133E8
:10117000047342608373C4730D000068012C06D9A8
:10118000421C0133DBB2137003329C42F9D1FF21C0
:1011900029404B005918002340180338437030BDD4
:1011A000F8B5CE46474606000C0080B5002907D0AA
:1011B0004D0003686D18033D5A195778002F04D16C
:1011C0002000C0BCB946B046F8BD7900C919033942
:1011D0008846434459788946002159705170736894
:1011E0003A002100806898473368002814D04246AE
:1011F0009A18947059195B5D002B00D053700F70D2
:10120000270049463000FFF7CBFF390002003000CD
:10121000FFF774FF0400D3E7424641465D19AF7003
:101220009A185B5C002B00D06B701470E9E7C04625
:10123000F0B557464546DE464E46E0B50D006B001C
:1012400001685B19DF1E0400C85D83B00192CA19F2
:10125000002850D043001B18033BCB185E78B446DF
:10126000002E1AD1019E002E42D0E67B002E04D023
:1012700073009B19CB18033B5D70A37B002B00D13F
:10128000A573E57300282FD10023537003B0F0BC81
:10129000BB46B246A946A046F0BD72006244033A7E
:1012A00089184A78904600224A7091465A70010087
:1012B00032002000FFF722FF43468246002B07D072
:1012C0005B0021684344033BCB185A78002A16D1AF
:1012D000424651462000FFF711FF2168019BCA19C1
:1012E000002BC2D10028CFD043001B18033BCB18E2
:1012F00000219970C8E7019B002BB6D1C4E75000CC
:101300008018033809184878834648464870587052
:1013100041462000FFF7F2FE594680462000FFF7C5
:101320003FFF414602002000FFF7E8FE8046CFE77E
:10133000F0B557464546DE464E46E0B583B00191CE
:10134000457B04006B0000685B19DF1EC15DC2199C
:10135000002952D04B005B18033BC3185E78B4469B
:10136000002E1CD1019E002E44D0E67B002E04D01E
:1013700073009B19C318033B5D70A37B002B00D146
:10138000A573E573002931D10023280053706173E0
:1013900003B0F0BCBB46B246A946A046F0BD720001
:1013A0006244033A80184278904600224270914687
:1013B0005A7020003200FFF7A1FE43468246002B00
:1013C00007D05B0021684344033BCB185A78002ABE
:1013D00017D1424651462000FFF790FE019B0100C5
:1013E0002068C219002BC0D10029CDD04B005B185A
:1013F000033BC31800209870C6E7019B002BB4D1B3
:10140000C2E75000801803380918487883464846D8
:101410004870587041462000FFF770FE59468046DC
:101420002000FFF7BDFE414602002000FFF766FEE8
:101430008046CEE770B5040000292CD0437B8B4258
:101440002ED0056848004018033828188278002AF2
:1014500021D053009B18033BEA5CEE188A4202D16C
:101460001BE0002A08D053009B18033BEB185A7866
:101470008A42F6D142785A70002301228370437069
:101480002000FFF7D5FE617B02002000FFF736FE4B
:101490006073012000E0002070BD43783370EBE7FB
:1014A00001221900FFF7C4FE60730120F4E7C04673
:1014B000F8B5CE464746040080B506200E0000F081
:1014C00023FA051E51D0524B5249E21853425A4159
:1014D0008023DB039C4692054F4B62441A604F4BBE
:1014E0001A6010008B689843FBD1494B8021E318A8
:1014F0005A4253414A4A5B0049009952062000F083
:1015000003FA3100C00001F0F1FEC30932D14022DC
:10151000012190466162A362256BEB0736D4270058
:101520008026E36A00232C3776013E433360062091
:10153000256300F0E9F94146800001F0D7FE236BF6
:1015400005009846DB073BD46022E36A5A406E23CD
:101550001340336043462363802310229B013B43A7
:101560001A60304B23630323A3642800C0BCB94630
:10157000B046F8BD2C4A93423FD900232B492C4A50
:101580006162A362256B9046EB07C8D52200C02399
:1015900030329B011343234A06201A60666AA26A0E
:1015A000B601B61800F0B0F9224901F09FFEB6026C
:1015B0000100300001F09AFE0021FFF797FCAEE732
:1015C0002200C02330329B011343164A06201A60C2
:1015D000636AA26A9B019946914400F095F94B46D3
:1015E00014499B02994601F081FE0100484601F032
:1015F0007DFE0021FFF77AFCA6E77F22990188464D
:1016000010400130400819008044030082E7C046C2
:101610000080FCBF00C0004000E0004000F000403F
:101620009892002001030000FEFF0000FFFF000071
:10163000C0FF3F004E0E000030B50C2083B000F01C
:10164000B9F9FEF787FE00280ED0994B994A1A6027
:101650005A609A60DA601A615A619A61DA611A62B4
:10166000954A5A6203B030BD944CA06700F0AAF9C5
:101670000122934B1A60636C012BFCD10322914B26
:101680001A608E4A936B012BFCD1013301218E4AE3
:101690008E480093043300F03DF905238C4A0093F3
:1016A00001218C4800F036F98B4B5A68FF2A02D88A
:1016B000802252005A6080227D4C824B21691201A7
:1016C000854D1A60002907D0606901F00FFE431CA8
:1016D0005800C0180338FDD2E0217F4B02201A6861
:1016E0001140802252012A431160196848400321A9
:1016F0000140116004219A681142FCD080228021AF
:1017000092012A4309011160802252005A60734BF2
:101710002361734B5968FF2900D85A600321684A36
:101720006F4B116002399A681142FCD0E0201A68B0
:101730001040802252011A4310601868484003216B
:1017400001400220116066498A681042FCD0802264
:1017500092011343802212011A608022614B5200D1
:101760004A606361604B5968FF2900D85A60802243
:101770005E4BE16912015C4D1A60002907D0606977
:1017800001F0B4FD431C5800C0180338FDD2E0221C
:1017900055490B681A4080235B012B431A60802354
:1017A00080229B012B4312011A608022414B520080
:1017B0004A60E3614E4B5968FF2900D85A60802285
:1017C0004C4B216A12014A4D1A60002907D060690A
:1017D00001F08CFD431C5800C0180338FDD2E022F4
:1017E00043490B681A4080235B012B431A60802316
:1017F00080229B012B4312011A60802380225B0010
:101800004B602C4BD20223623B4B5968914200D271
:101810005A608022394B616A1201374D1A600029E3
:1018200007D0606901F062FD431C5800C0180338FE
:10183000FDD2E02230490B681A4080235B012B4324
:101840001A60802380229B012B4312011A6080239F
:10185000DB024B60184B6362294B5A68FF2A02D89F
:10186000802252005A608022264BA1691201244D29
:101870001A60002907D0606901F038FD431C580048
:10188000C0180338FDD2E0221D490B681A4080239E
:101890005B012B431A60802380229B012B431201A2
:1018A0001A6080235B004B600E4BA361DAE6C046F2
:1018B000004A0020006CDC021BB7000000800040E2
:1018C0003CB0004030B00040002F6859008002401A
:1018D000008C864700C0024030800040001BB700EB
:1018E0003C800040405973075480004054B0004091
:1018F0006080004060B000406C8000406CB00040F0
:101900004880004048B00040014B8000C0587047FC
:10191000004A0020F8B5040021481D0017000E0001
:1019200001F0E4FC0100380001F0E0FC069B290412
:101930001B0319432368002B20DB1A4B1A4DE218B6
:1019400053425A4180235B019C461203174B624469
:101950001A60174B1A601700AB689F43FBD1C02277
:10196000231D92011A4321232660A060136023687F
:10197000002BFCDA0823E1601360F8BD3F232268E6
:101980001340B342D9D1A3681B051B0D8342D4D1A8
:10199000EE22E368D20213408B42CED1EDE7C0467F
:1019A000001BB7000040FDBF00C0004000E0004049
:1019B00000F000408023024A9B000343D36270473B
:1019C00000800540AA23064A1B0113602F23054906
:1019D000D360054B19605368002BFCDA7047C04692
:1019E0000040024000B0FA00006002402C4B2D4A3B
:1019F00070B51A602C4A2D4B2D491A6014008B6863
:101A00009C43FBD12B4D2C4EB54208D2013E761B98
:101A1000B60808CD984723000134B342F9D1FFF747
:101A20000BFE264A214B1A60214A9368DB43DB01F7
:101A3000DD09002BF9D14022214B224C224E9A671E
:101A40005A671A67DA66B44208D223682000002B6E
:101A500020D00834FEF760FEB442F6D31B4E1C4C77
:101A6000C022A168300002F0D7FBA660FEF79CFC04
:101A7000FEF72AFEFEF7EEFF164C174EB44208D2D0
:101A8000013E361BB60808CC98472B0001359E4214
:101A9000F9D170BD0834FEF731FEB442D5D3DDE78D
:101AA00000E00040BFCDFBFEFE7F3C0000F00040A8
:101AB00000C00040D00E0020E00E0020FFFFFF011C
:101AC00000F00140C80E0020D00E002000000020D1
:101AD00000ED00E0E00E0020E40E002000BEFDE777
:101AE000094A03001068002805D00849C3188B4232
:101AF00007D81360704706480449C31810608B422A
:101B0000F7D901204042F5E7C85300200000042027
:101B10006093002010B5FFF7E1FFC04610B50C0040
:101B200082B01900002A0AD0064B019200930200ED
:101B30002300054801F02EFB0120FFF7CFFF034BE8
:101B40001A00F2E7B4120610C412061050CF0610A5
:101B50000FB400B5084883B002F0C2FC049B002B10
:101B600007D005A91800019101F034FB034802F0E9
:101B7000B7FC0120FFF7B2FFF4120610B8CF061031
:101B800010B50148FFF7E4FF041306109A4200D293
:101B9000885470477047C046F8B557464E4645468C
:101BA000DE46E0B599460A9B07009A460D9B88469B
:101BB000934615000B9E9B0710D10C9B9E420DD2A5
:101BC0009D1B14000E005D4422004B460134310081
:101BD0002020B847A542F7D1B0460B9E002E27D053
:101BE000444675195346AA1B013E985D21004B4699
:101BF000B847002EF6D123002C0098460D9B9B077A
:101C00000FD55B46E51A0C9BAB420AD9464698466F
:101C100022004B46310020200135B8470134A84549
:101C2000F6D82000F0BCBB46B246A946A046F8BD97
:101C30002C00E3E7F0B54F464646D646C0B584B023
:101C400098460EAB1B78129F994694460D9C109BAC
:101C5000119EBA0725D4002E4BD19C4200D3BFE081
:101C600001223A4092461F2C00D9B8E00C9A551E2A
:101C7000302201E0202C03D001342A55A342F9D8A8
:101C80005246002A0DD0A6420BD9202C44D00C9AE3
:101C9000551E302201E0202C3ED001342A55B4429A
:101CA000F9D1FA064DD57A053FD4002C39D10F9BD6
:101CB000102B00D179E00F9B022B00D18AE030235A
:101CC0000C9A012413704B46002B3FD02D230C9A05
:101CD000135501340C9B62460093039743460296CA
:101CE0000194FFF759FF04B0E0BCBA46B146A846DC
:101CF000F0BD012215003D40AA463A422FD04A4687
:101D0000002A02D10C323A4200D0013E9C42BAD2A3
:101D10001F2CABD9202E27D92024FA06DAD57A0534
:101D200003D4A3422DD0A6422BD00F9B102B32D030
:101D3000022B20D0202CCDD030220C9B1B191A70E6
:101D40000134202CC6D04B46002BBFD17B070DD4CD
:101D50003B07BFD520230C9A13550134BAE79C42A8
:101D60009FD21F2C00D881E720249AE72B230C9ABE
:101D700013550134AEE7202CACD00C9B1B19013459
:101D80003AE0631E012C92D00F9A102A2AD0022A20
:101D90002FD01C00D0E7BB060ED4202C9AD00C9B71
:101DA0001A19013478231370C4E7BB060DD47823C5
:101DB0000C9A01241370BFE7202C00D18AE7582227
:101DC0000C9B1B191A700134B4E758230C9A012498
:101DD0001370B1E70C9A603301241370ACE7202430
:101DE00000265EE7023CBA06E9D40C9A12191C00E0
:101DF000D8E70C9A9246534462221A709AE7C0467A
:101E000010B5002800D110BD02F01EFBFBE7C04654
:101E10000B0010B5002802D049681B68984710BD18
:101E2000F0B5DE4657464E464546E0B59BB09B466C
:101E3000249B89469846259B0B900C92404642462F
:101E400019009A4601F023FD002800D0D8E00122B5
:101E500040465146774B524201F014FD002800D015
:101E6000CEE0012240465146734B524201F0F4FC51
:101E7000002800D0C4E0002200234046514601F073
:101E8000EBFC002800D0B9E1424653460A92099380
:101E90008023289ADB001A400E92289A1A4201D118
:101EA000062326930A9A099B1600134300D0C7E025
:101EB000289B002500261B0500D49BE100230D93E1
:101EC000269A0D9B9A4200DC9FE1D01A431E26936E
:101ED0008023289ADB001A430023002728920D93C1
:101EE000279B0024BB4200D9DC1B0223289A1A40FE
:101EF0000E92289A134203D07B427B415B421C40E6
:101F00000D9B002B07D00A9809992A00330001F095
:101F10003AFC0A900991002200234046514601F004
:101F20009BFC002805D08020000684460999614466
:101F30000991289A414B0B9D13400493269B0A9AC2
:101F40000293099B03940092019349465B46280043
:101F50000C9A00F08BF90400002F62D0289B22001D
:101F600098061F23C0179843631C984649465B4652
:101F70006530A8470D9B0025DA179C18DB0F9A46A1
:101F80005440013F01E0202D13D00AAA94461F239C
:101F9000200063440A2101355E1901F0A7F93031B0
:101FA000317020000A2101F0A1F926000400092E59
:101FB000E9D805230693002304930A330393534679
:101FC00005970B9F029312AB009342465B4649462E
:101FD00038000195FFF72EFE0E9B0400002B20D049
:101FE0000C9BC51A279BAB421BD91E0022005B46E7
:101FF000494620200135B8470134AE42F6D810E0FA
:10200000289B42460493279B49460393269B0B98A3
:1020100002935346009201935B460C9A00F026F916
:10202000040020001BB0F0BCBB46B246A946A04647
:10203000F0BDC046FFFFEF7FFFFFEFFFFFF7FFFFA1
:10204000734B099F9C467800400D604401F032FCC0
:10205000704A714B01F0B5FB704A714B01F08AFB7D
:102060003B03704A1B0B1A4304000D0030001100A3
:102070006D4B002201F075FB6C4A6D4B01F0A1FB2A
:1020800002000B002000290001F074FB01F02AFC83
:102090000D9001F00FFC674A674B04000D0001F042
:1020A00090FB0022654B01F065FB01F01BFC644ACC
:1020B0000600644B2000290001F083FB040030007F
:1020C0000D000F9601F0F6FB5F4A604B01F079FBC3
:1020D00002000B002000290001F043FB02000B006E
:1020E00006000F0001F06DFB320004000D003B0004
:1020F0003000390001F03EFB002210901191544B4A
:102100002000290001F03FFB0022524B01F032FB7E
:1021100002000B002000290001F035FB00224E4B8D
:1021200001F028FB02000B002000290001F02BFB2E
:102130000D008021040032003B000020C90501F0A1
:1021400010FB02000B002000290001F013FB02002D
:102150000B001098119901F016FB0022314B01F091
:1021600009FB3E4B0F9C9C4664440022230501F072
:1021700028FB05000E0002000B000A98099901F0E7
:102180006BFB00280AD00D9B2800013B31000D930A
:102190000022304B01F0F7FA05000E00C6270D991A
:1021A0002B0063318F42BF4128997F4204370905D4
:1021B00000D495E6334300D182E6099C284A2100E9
:1021C000284B0A9801F056FB002808D00022210075
:1021D000254B0A9801F040FB002800D070E6269BB2
:1021E000002B00D17CE60E9B5A1E9341269AD31AEF
:1021F000269375E6002304270D9371E643460A9360
:1022000080231B065344099342E6002326935FE68E
:1022100001FCFFFFFB799F501344D33FB3C8608B91
:10222000288AC63F0000F03F0000F83F61436F631B
:10223000A787D23F71A379094F930A400000E03F7E
:102240001655B5BBB16B0240EF39FAFE422EE63FA0
:1022500000002C400000244000001840FF03000054
:102260002D431CEBE2361A3F80842E41F0B54E46DA
:10227000DE4657464546E0B597B09946209E219FD9
:10228000229B8346984607910C923B003200300017
:10229000390001F0FCFA002800D0A9E10122300049
:1022A0003900CA4B524201F0D7FA002800D0E1E0D1
:1022B000012230003900C64B524201F0E3FA0028F7
:1022C00000D0B7E0002230003900C24B01F0DAFA4A
:1022D000002800D099E0002230003900BE4B01F008
:1022E000BBFA002800D090E0002200233000390023
:1022F00001F0B2FA002800D0B1E000230D93249B36
:102300005B0501D40623984608AB9C46172200249F
:1023100030234146624404E0013413550139202C36
:1023200001D00929F8D888463000390001F0DAFADE
:102330004346DA00A94B05009B181A685B680892AF
:10234000099301F0B7FA02000B003000390001F0E8
:1023500008FA089A099B01F034FA0A900B9101F0EF
:10236000E5FA824601F0A2FA02000B000A980B99E6
:1023700001F0F7F900229A4B0A900B9101F082FAD2
:10238000002800D1C0E001239C46E244504601F001
:102390008DFA02000B000898099901F063FA0028F1
:1023A00002D000239A4601354346002B6AD008AB81
:1023B00017269C4608956644554614E001235B4267
:1023C00043440A2128009A4600F090FF013430313E
:1023D0003719397028000A2100F088FF092D00D82C
:1023E000D0E0D0460500202CE8D10EAB9846032360
:1023F000249A1340012B00D196E02023249A0193C4
:102400000392239A434602921EE0249B584604936B
:10241000239B00960197039343460C9A02930799D6
:102420004B46FFF7FDFC17B0F0BCBB46B246A946D1
:10243000A046F0BD249B5B070ED40322694B249970
:102440000192039123990291009358464B460C9AAE
:102450000799FFF7A1FBE6E70422634BEFE73B0098
:1024600032000020002101F07CF9012306000F005A
:102470000D9344E7249B0393239B0293042301932E
:102480005A4BE1E7280001F015FA02000B0030007A
:10249000390001F066F9524B002206000F0001F0EE
:1024A000DBF90EAB984600280AD100223000390033
:1024B0004B4B01F0E7F9002802D1EB0700D50135BD
:1024C000202C94D008AA94461723280063440A219C
:1024D00001341E1900F0E2FE3031280031700A216B
:1024E00000F0DCFE051EEBD10323249A1340012BE0
:1024F0001BD0202C00D180E70D9B002B35D02D2246
:102500004146631C0A5579E700220A980B99344B1F
:1025100001F0A2F9002800D046E75346002B51D124
:1025200001239C46E2443FE72024239B002BE0D07C
:102530000D9B002B03D1249A0C33134202D0239B12
:10254000013B2393239BA342D3D908AB9C4617227C
:1025500030236244202C00D14FE7239901341355D6
:102560008C42C6D0202CF8D147E7249B5B0724D4AB
:10257000249A2300120700D440E720224146013369
:102580000A553BE75746089D202C00D12DE7220035
:1025900030214046002F09D00132B154202A00D109
:1025A00023E7D3431B191B18002BF5D10EAB98461C
:1025B0002E234146541C8B5482E72B224146631C38
:1025C0000A551BE7DB0700D4EEE6A9E7FFFFEFFFA4
:1025D000FFFFEF7F65CDCD4165CDCDC1081506105C
:1025E0000000E03F1013061014130610201306100D
:1025F000249B0393239B029303230193004B23E724
:102600001C130610F0B5DE464E4657464546E0B56B
:102610009FB01C00289B91460993C94AC94B8B4621
:1026200008901A60002900D118E2002320789A4609
:10263000002800D11AE226001D005C460AE02A00AC
:102640006F1C4B46089D2100A8473D00013630789D
:10265000002870D02528F2D110239B46083B9A46CB
:10266000043B9846023B00219C46721C10781600E1
:102670000300203BDBB2102B03D8B34F9B00FB5869
:102680009F460300303B092B32D900230A932A28A6
:1026900068D0002398462E283ED00300683BDBB26A
:1026A000122B1CD8A94A9B00D3589F460123013204
:1026B0001943DBE7634601321943D7E7434601324A
:1026C0001943D3E75B4601321943CFE75346013242
:1026D0001943CBE780235B00707819430136030070
:1026E000253BDBB2532BAAD8994A9B00D3589F466F
:1026F00000270300B800C01901364000C018337825
:1027000030381A00303A0700092AF3D90A90180025
:10271000002398462E28C0D180237078DB0019430F
:102720000300303B721C092B00D8A1E12A2800D1FC
:10273000B2E11600B1E7A346AA462C00D14503D862
:1027400001235B424B449A464B4652465946002071
:10275000089DA84720001FB0F0BCBB46B246A94662
:10276000A046F0BD099B40CB0A96002E03DB5078B3
:102770000993561C8DE72838014370420A9009934B
:102780005078561C85E7782800D1DFE1582800D121
:102790004CE26F2800D14FE3622801D100F030FCF9
:1027A00010230A009A430B92692801D000F0A9FC7B
:1027B0000A230C934B0500D5D0E10B9A802311001E
:1027C0009B0019408B461A4200D0A1E280231100E1
:1027D0005B0019408A461A4200D0B6E313005B063C
:1027E00000D5EDE2130009991B0601D400F076FC38
:1027F00008C91BB2D8171A18424092B209919346E1
:10280000DA0F1292002B09D1802310220B99DB00E2
:102810000B4091430B91002B00D0E4E20B9A612313
:10282000920600D541230EA91F228C46DBB26244DA
:102830000A3B5F461395A34655460C9CB2460D9342
:1028400016000AE03033DBB201357355A74200D2DF
:10285000EDE2202D00D1EAE207002100380000F06F
:1028600045FDCBB20929EDD90D9A94466344DBB2FC
:10287000EAE780239B007078194301362FE77078D0
:10288000682800D1CDE180230136194327E770780D
:102890006C2800D1BFE180235B00194301361EE79D
:1028A000462800D19BE10722099B049107339343FB
:1028B0000A9A19000392424602920CC908980092A3
:1028C000019309912A004B462100FFF7CFFC013606
:1028D0000500BCE62A006F1C4B46089D2100252000
:1028E000A84701363D00B2E68B0700D4ADE1099B55
:1028F0002A009A466B1C9846534601CB21009A4603
:10290000089F4B46C0B2B8470A9B9C466544012BC2
:1029100000D886E2089B4746B04626004C469946BA
:102920003A002300013731002020C847AF42F7D1D9
:10293000A1465346340046460993013687E6C04611
:102940000526001000540020281306106C130610F2
:10295000B8130610099B04CB9B4643460992002BF3
:1029600000D1C6E013789C46002B00D1BDE343465E
:10297000013B099A0133D0180A9F130001E08342FA
:1029800003D05A780133002AF9D1099A0A979B1A81
:102990000B9380230A00DB001A400C92194204D0EA
:1029A0000B9B434501D943460B9302231A000A406F
:1029B0000D920B4200D187E16046002800D168E10A
:1029C0000C9B002B00D10DE1A844C246099B574641
:1029D0005B1B9846089BB2462A0026004C46994647
:1029E00009E023003100551CC8474346585D0028C4
:1029F00000D126E12A009742F3D1A1463D003400E0
:102A000056460D9B002B00D043E15B4601360993EF
:102A10001DE6099B1A0008CA9246002B48D02122C5
:102A200011438B460EA884461F216144099500225C
:102A30000F27A4460D0002E0202A0CD00B003C001A
:102A40001C4020003730092C00D807380132A85428
:102A500019090F2BF0D86446099D32E0DC4B207831
:102A6000089300239A46002800D0E4E5002465E698
:102A7000434606000A9F9800C018013240008019A2
:102A80001678030030003038303B0928F3D9300085
:102A9000984616000A9700E6099B023604CB90463A
:102AA000D2434046D2171040804609933078F4E56F
:102AB000102208009043113210438346002249053A
:102AC000B0D55B4606930823059343460493102331
:102AD00003930023029316AB019200932A004B4606
:102AE00021000898FFF7A6F8534605000136099320
:102AF000ADE513789C46002B00D1F7E202235B4240
:102B000037E7202302009A43472A04D180231B0180
:102B1000194302239843452801D120231943072252
:102B2000099B0491073393430A9A19000392424682
:102B300002920CC908980092019309912A004B4611
:102B40002100FFF76DF90136050080E510230C9395
:102B50000C230A009A430B924B0503D501230B9AD1
:102B60009A430B92692800D127E6642800D124E615
:102B70000B9A802311009B0019408B461A4200D00B
:102B800066E1802311005B0019408A461A4200D09A
:102B900039E213005B0600D53CE113001B0600D4AC
:102BA000A6E2099B04CB1204120C934609935B46E0
:102BB000002B00D09AE10B9A1033110099430B912E
:102BC000520500D492E100239A460B9B06930A9B80
:102BD0000593434604930C9B039300230CE12023AD
:102BE000194360E6099B0A9A5B1B98464B4691463F
:102BF0001F00B2462600089C2A003B003100A04777
:102C000043460135585D0028F6D14A463400B9469E
:102C100056460A92F5E6C0239B00B0781943023667
:102C20005DE5C023B0781943023658E50C230A004D
:102C30009A4314331A43103B0B920C934B058DD4DB
:102C400096E7A14634005646DBE60A9A012A00D8E8
:102C500053E26B1E9F18089BB04626004C469946CF
:102C60002A002300013531002020C847BD42F7D19A
:102C7000A14634004646099B3A0001CB2100984604
:102C80007D1C4B46089FC0B2B847434601360993A6
:102C9000DDE40B9B0A9AA8469A4200D8B5E6944612
:102CA0006544ED1A089B4746B04626004C469946B7
:102CB0003A002300013731002020C847AF42F7D146
:102CC000A14634004646A0E60B9A0A99531C91424D
:102CD00000D814E24B199B1A1F00089BB24626002D
:102CE0004C4699462A002300013531002020C84770
:102CF000BD42F7D10A9BA14601330B93099B3400D7
:102D00001B7856469C466046002800D058E67CE674
:102D10000722099B07339343013294469C44624641
:102D20005F6809921A68FB17109311931098119914
:102D3000030053400E930B007B400F9394460E9A72
:102D40000F9B121A8B410E920F93FB0F6246129348
:102D500000233A439B463DD00B9A6123920600D54F
:102D600041230022DBB20EA90A3B8C4692460D930A
:102D700043461F3262441395159655460E9E0F9F8B
:102D8000A24690460C9C14930CE03032D2B24346DB
:102D900001355A55BB4500D18AE1202D00D18AE189
:102DA00006000F00220000233000390000F0DCFA9A
:102DB000D2B2092AE9D90D9B9C466244D2B2E6E719
:102DC000FF23099904C913401A00099117E5C04669
:102DD000951B00100B9A1033110099430B9152056B
:102DE000BAD500239A460B9B06930A9B059343464C
:102DF00004930C9B0393129B02935346019316ABCF
:102E00002A00009321004B460898FEF713FF013675
:102E100005001CE4FF22099B02CB11408B4609935D
:102E2000C5E65346454609930136FFF710FC564662
:102E30005C46AA46139DD6E708230C930B910B9989
:102E4000642800D084E60B9B5B0500D586E6B4E4DD
:102E50000722099B07339343013294469C44624600
:102E600009921A685B6810009B4613005A46134388
:102E700007D10B9A1033110099430B91520500D5DD
:102E8000A1E60B9A6123920600D541230022DBB212
:102E90000EA90A3B8C4692460D9343461F3262446C
:102EA0005F461295A34655460400B24690460C9ED6
:102EB00013930DE03032D2B2434601355A55002308
:102EC000BB4200D100E1202D00D100E104000F0041
:102ED000320000232000390000F046FAD2B2092A5D
:102EE000E8D90D9B9C466244D2B2E5E70B9A612378
:102EF000920600D54123DBB20EA90A3B1F228C4665
:102F00000D93230062445C461295170055469B467C
:102F1000B2460C9E08E03033DBB201357B55B4423B
:102F20000ED3202D0CD004003100200000F0DEF97B
:102F3000CBB20929EFD90D9A94466344DBB2ECE792
:102F400056465C46AA46129D3FE6099B1A0008CAEF
:102F5000D91713925A184A409246DA0F1292002B50
:102F600008D1802310220B99DB000B4091430B9179
:102F7000002B2BD10B9A6123920600D541230EAA78
:102F80001F279446DBB20A3B0D9567445D460993C3
:102F9000A3465446B2460C9E08E03033DBB20135FE
:102FA0007B55B4420ED3202D0CD0040031002000FC
:102FB00000F09CF9CBB20929EFD9099A94466344F1
:102FC000DBB2ECE756465C46AB460D9D0B9B2A00F8
:102FD00006930A9B21000593434604930C9B089893
:102FE0000393129B013602935B46019316AB009349
:102FF0004B46FEF71FFE139B05000993FFF727FBC7
:1030000002230C931AE7099B04CB92461293002AE1
:1030100008D1802310220B99DB000B4091430B91C8
:10302000002B2BD10B9A6123920600D541230EAAC7
:103030001F279446DBB20A3B0D9567445D46099312
:10304000A3465446B2460C9E08E03033DBB201354D
:103050007B55B4420ED3202D0CD00400310020004B
:1030600000F044F9CBB20929EFD9099A9446634498
:10307000DBB2ECE756465C46AB460D9D0B9B2A0047
:1030800006930A9B21000593434604930C9B0898E2
:103090000393002302935B46019316AB00934B46C8
:1030A000FEF7C8FD129B050009930136FFF7CFFA22
:1030B000B44200D871E6149B54460E960F97AA4668
:1030C0009846159E139D8EE6A64200D8FBE6139BFC
:1030D00056469846AA465C46129D76E508C9D8171A
:1030E0001A1842400991FFF78AFB00230B9350E422
:1030F000099B04CB9346099359E52F00BBE50B933D
:1031000001E6063B0C939AE60EB4012210B585B099
:1031100007AC08CC01000094524204480394FFF726
:1031200071FA05B010BC08BC03B018478D1B001025
:103130000CB410B584B006AC08CC0A0000940100B1
:1031400004480394FFF75EFA04B010BC08BC02B058
:103150001847C0468D1B001000B583B000931300C4
:103160000A0001000248FFF74DFA03B000BDC04657
:103170008D1B001000B585B00391012102900093D2
:10318000034813004A4202A9FFF73CFA05B000BD0C
:10319000111E00100FB410B50C4984B006AA08CA5D
:1031A0000C680392002C0BD0009201220848524276
:1031B00002A9A047012004B010BC08BC04B0184705
:1031C000180001F08DF90020F5E7C04600540020FA
:1031D000011E001010B5094A0300146884B0002CC9
:1031E00008D0012200910648524203A9A0470120BD
:1031F00004B010BD01F074F90020F9E7005400207C
:10320000011E001001480421014B18471003002043
:1032100059320010014B5B68184700001003002072
:10322000014B9B681847000010030020014B1B68EE
:103230001847000010030020142310B5010018885F
:1032400004331B88984710BD162310B50100188859
:1032500002331B88984710BDF8B54746CE4680B567
:103260000F1E19D0142399460433040000250126AB
:1032700098464B461888434621681B88984701C4E6
:10328000431E9841013540420640AF42F1D1300023
:10329000C0BCB946B046F8BD0126F8E7124A936FA4
:1032A0009B0815D29066D166002905D0FFE7FFE79D
:1032B000FFE7516F106F704704B580210906C217F0
:1032C0005140002800D0C8435DF0BEFF002104BD7E
:1032D000F0B5146E556E576F166FFFF7E3FF146667
:1032E000556657671667F0BD000000D0114A936F0E
:1032F0009B0813D210665166002905D0FFE7FFE74F
:10330000FFE7516F106F704704B5002801D000200F
:10331000C0435DF099FF002104BDC046F0B5146EB6
:10332000556E576F166FFFF7E5FF146655665767C2
:103330001667F0BD000000D094464A4A926F92088A
:10334000624601D228E0C046F0B5464E346E756E36
:10335000776F366F00F020F89446424A146655663F
:10336000576716676246F0BD94463E4A926F9208D0
:10337000624601D254E0C046F0B53A4E346E756EE6
:10338000776F366F00F04CF89446364A14665566EF
:10339000576716676246F0BD002B24DB11D0002969
:1033A0003EDA00B5C943404200D1013100F038F89F
:1033B000C943404200D10131DB43524200D10133C5
:1033C00000BD002AEBD1002801D1002905D0002042
:1033D000C90FC90701D1C043410800B55DF024FF02
:1033E0000022002300BD00B500290ADBDB43524266
:1033F00000D1013300F014F8C943404200D101313B
:1034000000BDC943404200D10131DB43524200D1EB
:10341000013300F005F8DB43524200D1013300BD17
:10342000002923D1002B18D1002A0CD0BC460D4F07
:1034300038667A6600210023FFE7FFE7FFE77A6F2F
:10344000386F67467047002801D00748010000B573
:103450005DF0EAFE0022002300BD02000B00002008
:1034600000217047000000D0FFFFFFFF002B00D0BD
:10347000BFE0130C28D1002AE7D080B4114F396681
:103480007A66FFE7FFE730B4040C7B6F396F1B04EB
:1034900023433B667A66FFE7FFE7FFE7C04684B257
:1034A0007B6F3D6F1B0423433B667A66FFE7FFE7B4
:1034B000C04600232C042D0C7A6F386F0019694127
:1034C000B0BC7047000000D0F0B594460025140E43
:1034D00001D112020835140F01D112010435940FE5
:1034E00001D192000235D40F01D152000135D40B25
:1034F0000134254F7C66254C3C660E0C93B2FFE7E9
:10350000FFE7FFE73C6F6643360C7703BE46734325
:10351000DF0B5B04C01AB941130C7343DB18C91AE3
:10352000CE086643360CB64493B273431F0F1B019B
:10353000C01AB941130C73431F0B1B05C01AB941C4
:10354000860D8F023E436643360C092D24DB520A5A
:103550007243801A7703460A6643360C16235B1BB8
:10356000DE40DF40BF1964466643821B7046043567
:1035700006330100D940A840C01900D30131A2424E
:1035800006D20023F0BD0000000000D0FFFFFFFFC7
:10359000121B0130F3D3F1E709277F1BFE4064467D
:1035A000A2B27243801A00D20139220C7243130C6A
:1035B0001204821A99410B0070460435133701003A
:1035C000F940A840801900D30131002B02D1A2425A
:1035D0000AD2F0BD013000D30131121BFAD2013BF7
:1035E000F8D1A24200D2F0BD013000D30131121B4C
:1035F000F7E7F0B51C0C00D080E00CB400251C0AE5
:1036000004D11B02160E3343120208351C0B04D1E1
:103610001B01160F3343120104359C0B04D19B0090
:10362000960F334392000235DC0B02D192185B41B6
:1036300001351C00971864410134464F7C66464CA6
:103640003C660E0CFFE7FFE7FFE7C0463C6F6643B2
:10365000360C7703BE4697B27743C01B00D20139C0
:10366000C01B00D201399FB27743C91BC91B170C7D
:1036700077437E04FF0B801BB941CE086643360CAE
:103680000C2D33DBB644120B1F053A431B0B97B2CC
:103690007743C01B00D201399FB27743C91B170C77
:1036A00077433E043F0C801BB941860D8F023E4399
:1036B000664329277F1BFE400C3D7746AF40BF196C
:1036C00030BCA2B2ABB272437343801A9941220C50
:1036D0007243130C1204801A994102000B00013747
:1036E000001BA941F9D2781E0021F0BD0C277F1BD9
:1036F000FE4077467F0BAF40FF19E0E700245D1CDA
:1037000007D0144F7D663966FFE7FFE7FFE7FFE765
:103710003C6F95B29EB265436643401BB141150CA8
:103720001E0C6543664336042F0C3E432D04401B9C
:10373000B141994204D202000B0020000021F0BDEB
:1037400001D19042F7D3801A994101349942F2D3C2
:10375000F6E70000000000D0FFFFFFFF48404140B7
:10376000484018B41B4B5B68FC46019308BD04DF5E
:10377000933A001018B4174B1B68FC46019308BD20
:1037800000DF9D3A00109446134A926F920809D2C6
:10379000624618B40F4BDB68FC46019308BD0CDF92
:1037A000553D00100C4AF0B5146E556E576F166FEC
:1037B0006246FFF7EEFF084A1466556657671667BC
:1037C000F0BD18B4034B9B68FC46019308BD08DFAD
:1037D000F93B001008100020000000D0FFB5504059
:1037E0004240504059404B40594000E0FFB5154F12
:1037F0004C00640D03D0BC4204D10C0314D800204B
:10380000090D09055C00640D03D0BC4204D11C0302
:103810000AD800221B0D1B0501264B4009D44B4042
:1038200003D58B4200D18242FFBD9942FCD1904228
:10383000FFBD0B43DB1803431343F5D0C9434918BD
:10384000FFBD0000FF07000000B5FFF7CFFF01D06C
:10385000002000BD012000BD00B5FFF7C7FF80417B
:1038600000BDC04600B5FFF7C1FF01D9002000BD73
:10387000012000BD00B5FFF7B1FF01D9002000BD58
:10388000012000BD00B5FFF7A9FF804100BD012068
:1038900040054A00121804D85A00121801D8002016
:1038A0007047012070470020704700000021002869
:1038B00005D17047C1174840401AFAD0C90713B55F
:1038C000064B1B6898470CBC441CA2401005120B09
:1038D0000349091B09051943114310BDE88B00205A
:1038E0001F04000010B54C00620D8023D218DB00CD
:1038F000D21A5B057E2A10DD9E3A13DACC17090333
:10390000490819435242D140640001341532202A3B
:1039100005DAD0400843604310BD002010BD0846C2
:10392000604310BDC80FC018013810BD18B4044B57
:103930005B6AFC46019308BD24DF053F00100000D0
:103940000810002018B4044BDB6DFC46019308BD41
:103950005CDF11400010000008100020C94211D3A4
:1039600000B549004908002200F018F8002904D4E5
:10397000002240428A41114600BD802109060020F4
:1039800000BD000018B4044BDB6EFC46019308BD7B
:103990006CDF133F001000000810002018B4044B27
:1039A0009B6FFC46019308BD78DF2F3F001000009D
:1039B0000810002018B4044BDB6FFC46019308BDCF
:1039C0007CDF9D3F0010000008100020132370B51D
:1039D0001D78012D15D010DD1C48FFF735FC1C4C5F
:1039E00001008022200000F017FC022D06D01948AB
:1039F000FFF722FC184B186070BD154C174BA364E1
:103A0000F5E7164B124C23606360A360E36023610B
:103A10006361A361E36123626362A362E362236380
:103A20006363A363E36323646364A364E364236560
:103A30006365A365E36523666366A366E366236740
:103A40006367A367E367A364D1E7C04653440000FC
:103A5000081000204C330000E88B0020613A001071
:103A600007B5604601880A0A0230DF2AFAD1C9B2D6
:103A7000820804D3028840880004104300E00068F4
:103A8000014A5050039007BD081000200FB403BC3A
:103A90000CBCF0B50124E407634000E0F0B50C0D68
:103AA000CF0F661E3605891B640503D3C943404208
:103AB00000D30131640D03D0661CF60A07D0E41B65
:103AC00000207F00791C89078912803C24031D0D8A
:103AD000DF0F6E1E36059B1B6D0503D3DB43524281
:103AE00000D301336D0D03D06E1CF60A07D0ED1B19
:103AF00000227F007B1C9B079B12803D2D032F1B08
:103B0000661B58D4A446202E46DA20371400BC4049
:103B10001D00BD40F24033412A4380185941CB0F6C
:103B200005D0C943C043002264425041514162461E
:103B30004D0D28D10D0D07D100281FD0241940416B
:103B40004941013A0D0DF9D0640006D3013000D38C
:103B50000131002C01D140084000013A0BD4941CE3
:103B6000E40A04D112051144DB071944F0BDD9075A
:103B7000204B194300E0D9070020F0BD0029DDD11A
:103B8000002CDBD1F0BD0132C6074008CD07284329
:103B90004908002EE1D0D9E73C2E29DA203E4037F3
:103BA0001400BC4000D00124F24014431A00BB4072
:103BB0001C43D317ACE7AC46202F08DA20360400AC
:103BC000B4400D00B540F84039412843A5E73C2FEB
:103BD0000CDA203F40360400B44000D00124F84005
:103BE00004430800B1400C43C117EAE71000190074
:103BF000002494E70000F07FF0B50C0D661E36053A
:103C0000891BE60A6405640D02D0651CED0A04D028
:103C1000002001210905803C2403A4461C0D671ED9
:103C20003F05DB1BE70A6405640D02D0651CED0A45
:103C300004D0002201231B05803C24037740644408
:103C400097B484B296B27443070C7E43150C6F434D
:103C500080B26843361802D3012000043F183004B4
:103C6000350C00197D41844688B29AB250430C0C41
:103C700062431F0C7C438EB27E43921902D301260D
:103C80003604A4191604170C3618674101BC81B21A
:103C90009AB25143040C62431B0C5C4380B25843FC
:103CA000121802D30120000424181004130C401829
:103CB00063412D185E410020474106BC88B293B293
:103CC00058430C0C6343120C544389B251435B18A4
:103CD00002D301210904641819041A0C091862415D
:103CE0006D1856410020474118BCF902720D11436E
:103CF000F0026A0D1043ED020A0D03D16D19404127
:103D00004941013B124E9B1B7600B3420ED26D001F
:103D100007D30130002671416646354301D1400882
:103D200040001B05C918E4072144F0BD0BDA01333C
:103D300006D1013004D101314F0D01D04908F2E71D
:103D4000E1070020F0BD013631050020EBE700005F
:103D5000FF030000F0B51C0D671E3F05DB1BE70AE3
:103D60006405640D02D0661CF60A04D0002201230B
:103D70001B05803C2403D0252D060026F6432E6625
:103D80001E096E66CE0FF619B44649004F0D02D0DB
:103D90007E1CF60A03D000200021403F3F033E1B5B
:103DA000B600B444013F7F05C91B49082E6F013698
:103DB00076089C02950D25437543ED137543AD13AD
:103DC00001356D10F603761B0CB4CC02450D2C4367
:103DD000A2B2B3B25A43270C7B43350C6F43A4B253
:103DE0006C431B1902D3012424043F191C041D0C2D
:103DF000A4187D4124196D41009A91B2ACB261437F
:103E0000170C7C432B0C5F4392B25A43A41802D385
:103E100001221204BF182204230C52187B41019C7A
:103E20006C431B19520ED9010A434401A01A81B2F6
:103E3000B2B2514303145A43360C734387B27743EB
:103E4000D617D21900277E4136049B191704160C89
:103E50007F185E417316ED18F3010026803375411B
:103E6000A90F06D16400690AE8055B0A184309D264
:103E70002FE00422944480337541A90AA8059B0AC7
:103E8000184326D3404149412404009A019B0D0068
:103E90005543641B4343E41A95B286B27543170C2D
:103EA0007E43030C5F4392B25A43B61802D30122F9
:103EB0001204BF183204330C52197B4152429C4108
:103EC000002C02D40022013051414008CA0710439F
:103ED000490802B06246D7079210084BD218084B27
:103EE0009A4203D212058918C919F0BD0020002A90
:103EF00001DC3900F0BD01331905F5E7FD030000D1
:103F0000FE070000002200B5203200F010F8080083
:103F100000BD002200B500F00CF8CA179A4200D18B
:103F200000BDD8430121C907414000BD00220B1547
:103F30000AD410B5944600F0A7F81414013400DA3E
:103F40000021CB17144C2047002000217047624409
:103F5000343A0CD40C2A07DA0400914090405242C3
:103F60002032D440214310BDD843D94310BD203264
:103F700007D40C469440524220321141D040204395
:103F800010BD0800C917203203D45242203210411C
:103F900010BD1800190010BD4F3F00104A00520D0F
:103FA000144BD21A13DDFF2A1EDAD205CB0FDB0722
:103FB0001A43C300400F0903490A084310435B003A
:103FC00001D301D0013070474308FBD2704702D0C3
:103FD000C80FC00770470A0312130132F8D1420F0D
:103FE000072AF5D1012200E0FF22C80F0002801845
:103FF000C00570478003000000210A00002104E092
:1040000000210A00C11704E00022002306E0C04698
:104010000022CB1758405940C01A994130B5184C6E
:10402000A21A002903D1010010D00020203A4C151B
:1040300012D104D2013A001849414C0DFAD3114C67
:10404000A24204D212058918DB07C91830BDD24339
:10405000520D00200021F5E703D4013A0018494130
:10406000FBD50B324405C00A4D052843C90A64003C
:1040700003D0002460416141E1E7E0D34408F8E760
:1040800032040000FE0700000A0DCC0F531E1B0572
:10409000C91A520503D3C943404200D30131520D1E
:1040A00003D0531CDB0A07D0121B00206400611CE4
:1040B00089078912803A1203014BD21A7047000017
:1040C000FF03000051434343C9188C46110C83B2CF
:1040D0004B4310B4040C614392B280B2504362432C
:1040E0001C041B0C001910BC59411304120CC018FD
:1040F0005141614470470000132310B512481C78E9
:10410000FFF7A2F80100012C0AD003DD80220F483E
:1041100000F082F80E48FFF78FF80E4B186010BDC4
:104120000A4C5422200000F077F80B4B6365A3651E
:10413000E36523666366A366E36623676367A36735
:10414000E3672362E361E5E75346000008110020BE
:104150004C330000E88B00205D41001007B560463D
:1041600001880A0A0230DF2AFAD1C9B2820804D3D0
:10417000028840880004104300E00068014A505063
:10418000039007BD0811002010B5040057F006FC8D
:10419000002804D0034B04199C4200D810BD0248EB
:1041A000FDF7D6FC000004205815061010B50C00D1
:1041B00057F07EF8002804D0034B04199C4200D825
:1041C00010BD0248FDF7C4FC00000420581506107D
:1041D00010B50C0057F0E2FE002804D0034B041980
:1041E0009C4200D810BD0248FDF7B2FC000004203C
:1041F0005815061010B557F0DBFB10BD014804211F
:10420000014B18472003002059320010014B1B6856
:104210001847000020030020014B5B68184700008E
:1042200020030020030010B5080011001B68984708
:1042300010BDC046F0B546464F46D646C0B5437D94
:1042400080460E001700002B46D0002A3FDD4B1E93
:104250009946244B0125002400209A460DE04B4648
:104260001B5D0D3B5A425341325DDBB20A2A0BD033
:104270002B00013401359F421ADD002CEFD143465B
:10428000325D1B7D0A2AF3D1002BF1D1A04204DA62
:104290004346211A1B6830189847434650461B680E
:1042A00002219847013428002B0001359F42E4DCAD
:1042B000874204DD4346391A1B6830189847F619BF
:1042C000013E33780D3B5A42534142461375E0BCE0
:1042D000BA46B146A846F0BD0368110030009847C1
:1042E000F5E7C046D0150610F0B5C6460C000968C3
:1042F000060000B5802906D04B1C23606418267187
:1043000080BCB846F0BD0F4B1D68002D16D0231D94
:1043100098460D4F02E02D69002D0FD02B68002B21
:10432000F9D03B68002B01D0AB42F4D128004146C4
:104330002268FFF77FFF2D69002DEFD101230021B7
:10434000DBE7C0462C4F0020E84F0020F0B5DE46EA
:1043500057464E464546E0B585B017001C0006009E
:104360000D00FCF7B9FD0023304A12184B41002B19
:1043700058DB2F4908008A465CF06EFF01906B1CE9
:1043800003D1300058F05AF90500002C25D1294BF3
:104390009846294B1C68002C15D0002F20D1274FA0
:1043A00002E02469002C0ED02368002BF9D03B6872
:1043B000002B01D0A342F4D120002A003100C047D5
:1043C0002469002CF0D1019B002B27D105B0F0BC53
:1043D000BB46B246A946A046F0BD194B9846D8E761
:1043E000164B994602ABDF1D0A239B4602E0246967
:1043F000002CE8D02368002BF9D04B461B68002B1B
:1044000001D0A342F3D12A0031002000C0475B460F
:104410000122390020003B70C047E8E750465CF0BD
:10442000FBFED3E70122074B5242A2E740420F00B6
:10443000C80E0020354200102C4F0020E84F00200D
:1044400025420010FFFFFF7FF0B5CE46474680B5FE
:1044500083B06B460600DD1D2870FCF73DFD002390
:104460001A4A12184B41002B2BDB194908008846C9
:104470005CF0F2FE174B81461C68002C14D0164FDE
:1044800002E02469002C0FD02368002BF9D03B6890
:10449000002B01D0A342F4D1200001222900FFF714
:1044A000C9FE2469002CEFD14B46002B05D130000A
:1044B00003B0C0BCB946B046F0BD40465CF0ACFEAF
:1044C000F5E70122054B5242CFE7C04640420F00BC
:1044D000C80E00202C4F0020E84F0020FFFFFF7F78
:1044E00070B5040058F0AAF800230100050001226D
:1044F0002000FFF72BFF084B1C68002C06D06368D8
:10450000002B05D098472469002CF8D1280070BDF5
:104510002469002CF3D1F9E72C4F0020F0B5474671
:10452000D64680B516000F0083B000282DD11C4B55
:104530001C4D1A685B68019200931B4B9A461B4BFB
:10454000984653461C68002C03D114E02469002CC3
:1045500011D02B68002B01D0A342F7D1A368002B08
:10456000F4D03100380098470028EFDD03B0C0BC1C
:10457000BA46B046F0BD434600995B6A994209D8F5
:1045800042460198926A824202D301204042EDE7FE
:104590009942FAD101200021FCF7A8FCD1E7C046DE
:1045A00088120610E84F00202C4F002000400540E4
:1045B000F0B54646D6464F460138C0B50D00160048
:1045C00001283ED8FCF788FC00231F4A12184B41F3
:1045D000002B32DB1D49B046080089465CF03CFEEA
:1045E0008246731C03D1280058F028F88046184BE7
:1045F0001C68002C14D0174F02E02469002C0FD047
:104600002368002BF9D03B68002B01D0A342F4D1E2
:10461000200042462900FFF70DFE2469002CEFD14F
:104620005346002B05D13000E0BCBA46B146A8463F
:10463000F0BD48465CF0F0FDF5E70122064B524222
:10464000C8E701267642EEE740420F00C80E002080
:104650002C4F0020E84F0020FFFFFF7F0120404249
:104660007047C046012040427047C0460A4A13685E
:10467000002B05D10CE01A001B691032002B07D06B
:104680009842F8D1002902D1036913600161704793
:104690000029FCD01060FAE72C4F0020F0B5CE4680
:1046A000474680B5A5B004000D00FCF715FC0023BB
:1046B0002A4A12184B41002B49DB294E30005CF08E
:1046C000CBFD00230700039322002B00254803A9FC
:1046D000FEF750FD039B8046002B14D1224B1C6833
:1046E000002C06D06368002B0BD098472469002C5F
:1046F000F8D1002F27D1404625B0C0BCB946B046FE
:10470000F0BD2469ECE7184B1D689946002D22D0B6
:10471000164C02E02D69002D11D02B68002BF9D02A
:104720002368002B01D09D42F4D1039B28001A007E
:1047300004A90193FFF77EFD2D69002DEDD14B46B5
:1047400003951C68CCE730005CF066FDD3E70122DE
:10475000074B5242B1E70395CBE7C04640420F00FA
:10476000C80E0020E94200102C4F0020E84F002026
:10477000FFFFFF7F0FB400B583B004A901C9019109
:10478000FFF78CFF03B008BC04B0184710B500F069
:10479000C5F8012010BDC046F0B50D1E15DD0E4B4D
:1047A0000D271A680D4B4519D31859424B410C4936
:1047B0005B005E5E20210478A64207D0936919420F
:1047C000FCD101301460A842F5D1F0BD93691942C3
:1047D000FCD11760F2E7C0469C9200200080FCBF2D
:1047E0009892002030B504000D1E26DD0020102117
:1047F0001B4B013C1A689369194219D10130936926
:104800001942FCD1136823548542F4D1154B1B681F
:10481000002B0CD050239363516B183B34320B4068
:104820001100802252010A431360002815D030BDC8
:104830000C4B1B68002BEDD1F7E70A4B1B68002BD4
:104840000BD050223821064B1B689A635A6B3433C5
:104850001140802252011343196003204042E6E7D1
:104860009C920020BC470020064B10B51B68002B13
:1048700006D00021044A12689163044A10689847E0
:1048800010BDC046BC4700209C920020C0470020BD
:104890001D4BF0B51A68C64698461C4B0E00D3183F
:1048A00059424B411A4F14331C00050000B53B68B8
:1048B000002807D0002B11D0164B3D601E6080BC35
:1048C000B846F0BD002BF7D0906300212000FBF725
:1048D00085FD20001049FBF7C5FDEDE720000E49DE
:1048E000FBF796FD01212000FBF778FD434650229F
:1048F00038211B689A635A6B34331140802252016D
:1049000013431960D8E7C0469C9200200080FCBF8A
:10491000BC470020C0470020694800100C4B10B570
:104920001B780C4B0C4C1B780C4B02210020236095
:10493000FBF7F8FC02210120FBF7F4FCE1212068E1
:104940004902FCF7B5FD01210548FFF78FFE10BDB8
:10495000A0F50610A4F506109C920020004003402C
:104960003003002010B5040057F068FE210002005B
:10497000002004F035FA10BD00B583B000236A466C
:104980000321D371042007320EF0E0F96B46D87989
:10499000431E9841C0B203B000BDC04630B50C0004
:1049A0002E4D83B03A2229002D4B032030F076FDA6
:1049B00020002C4919F0AEFD43693B2229000093E9
:1049C0000320294B30F06AFD2000284919F0A2FD90
:1049D00003693C22290000930320254B30F05EFD43
:1049E0002000244919F096FD03693D222900009317
:1049F0000320214B30F052FD2000204919F08AFDA0
:104A000003693E222900009303201D4B30F046FD30
:104A100020001C4919F07EFD03693F222900009304
:104A20000320194B30F03AFD2000184919F072FDAF
:104A300003694022290000930320154B30F02EFD1E
:104A40002000144919F066FD0369412200932900F2
:104A5000114B032030F022FD03B030BD4416061088
:104A6000241606100CD206109C160610AC16061062
:104A7000B4160610841C0610C0160610CC160610BC
:104A8000D0160610D8160610E0160610EC16061002
:104A900004930610F0160610FC160610F0B55746E3
:104AA000DE464E464546E0B50B7807000C00C5B023
:104AB000002B2ED0012B00D17DE0022B00D159E13B
:104AC000032B00D179E0042B00D157E1052B00D155
:104AD00056E1062B00D14FE1072B00D152E10A2B02
:104AE00000D155E10B2B00D154E10C2B00D153E147
:104AF0000D2B00D152E10E2B00D151E1082B00D13A
:104B000050E1092B00D14FE10F2B00D14EE1A84A13
:104B100000E0A84AA84D019200934D22A74B29001E
:104B2000042030F0BBFC23780F2B3DD8A44A9B0017
:104B3000D3589F4666688D22737829000193337895
:104B4000042000939F4B30F0A9FC7368002B06D023
:104B500000938F22290004209B4B30F09FFC738927
:104B600094220193337A290000930420974B30F06C
:104B700095FC7389002B10D00C239846B044434613
:104B80000024B8461F00924D395D280030F094FC97
:104B900073890134A342F7D8474632000323380013
:104BA0007168083210F080FA45B0F0BCBB46B246DE
:104BB000A946A046F0BD874AACE7874AAAE76368E2
:104BC000732298461B892900029343465B78042090
:104BD000019343461B780093804B30F05FFC4346C3
:104BE0005B68002B06D00093752229000420764BC9
:104BF00030F054FC43461B89002B00D1C4E00C2349
:104C000043449B461C00764B00269A46754B9946BA
:104C10003B0047469846A3687B22039363782900AC
:104C200002932378042001930096534630F036FC1B
:104C30006378042B00D990E04A469B00D3589F46E6
:104C400063688022009329000420674B30F026FC23
:104C50003B8901360C34B342DDD84246B8461700D2
:104C6000424651680022380000925A4610F012F96C
:104C70009AE763687F22009329005C4B042030F0A0
:104C80000DFCE5E763687E2200932900584B042061
:104C900030F004FCDCE723797D2200932900554B9A
:104CA000042030F0FBFBD3E76368812200932900E6
:104CB000514B042030F0F2FBCAE761683800FFF77F
:104CC0006DFE30F0FBFE6422009029004B4B032068
:104CD00030F0E4FB68E76368290000936922484BE1
:104CE000032030F0DBFB0121606831F08BFA5BE7D9
:104CF00029005022434B032030F0D0FB30F0DEFE81
:104D00005122009029003D4B032030F0C7FB4BE7B8
:104D100029005D223C4B032030F0C0FB30F0CEFE7A
:104D20005E2200902900354B032030F0B7FB3BE7B3
:104D300063686D2200932900344B032030F0AEFBF2
:104D400032E7334B334A344904A8FEF7DDF9002239
:104D5000324904A800F09EF926E7A2680293039264
:104D600023788222019329002D4B0096002030F0F9
:104D700095FB6DE72B4ACDE62B4ACBE62B4AC9E6DD
:104D80002B4AC7E62B4AC5E60C224244934667E706
:104D9000294ABFE6294ABDE6294ABBE6294AB9E6BF
:104DA000294AB7E6294AB5E6294AB3E6294AB1E6CF
:104DB000C8180610BC17061044160610D0180610A6
:104DC000B01A0610741A0610D0190610901A0610A0
:104DD000A0A30610D017061004180610AC19061070
:104DE000DC190610F01A06102C1A06101C1A0610F0
:104DF0000C1A0610FC1906103C1A0610FC180610B6
:104E000088190610E8180610701906109C1906106B
:104E100010190610281906103C19061065490010D3
:104E20004C1A0610E81706105C1806102418061015
:104E3000401806107418061090180610281706104F
:104E4000AC1806100C170610441706106017061051
:104E50007C1706109817061030B59DB06846030001
:104E6000294C06CC06C318F0D7FF8021274AC90079
:104E7000042030F0D3F908A802002ACC2AC22ACC98
:104E80002AC20ACC0AC22388138027F0C1FE30F060
:104E9000A9FC31F0F7FB12F05BFA00F0F3F81C22EA
:104EA000002115A8FFF7B2F9194B1A4C11931A4BB0
:104EB0001A4D13931A4B11A914931A4B20001993EE
:104EC000194B12951A930CF02BFA03F0B1FF012045
:104ED0000DF0AEFE1822002102A8FFF797F9032378
:104EE000062102AA0120049306950DF0D9FEE222C4
:104EF00004200E4B0E4930F0D1FA20000CF0D6FA07
:104F000020000CF03BFDFBE7481B061011B105101B
:104F100028190610C4470020041B0610101906109B
:104F2000281B06109D4A001079490010301B0610FE
:104F30004416061010B5FFF78FFFC04630B587B096
:104F400003AA1100074B2C3331CB31C1002301924E
:104F5000009300220021044B044830F0D7FE07B034
:104F600030BDC046481B0610354F00103C8F002056
:104F700030B5A1B0012829DD486803786F2B0BD12B
:104F800043786E2B08D18378002B05D16C46220024
:104F9000124B23CB23C20BE0114957F0E9FA00284A
:104FA0000DD16C4622000F4B23CB23C21B7813700C
:104FB0000DF0C8F821000CF0DBFB21B030BD1D2244
:104FC000094B0A49032030F069FAF6E71322064B31
:104FD0000649032030F062FAEFE7C046EC1B0610EA
:104FE000F81B0610FC1B0610801B0610981B0610F1
:104FF00000B583B030F062FD48220090034B0449B5
:10500000022030F04BFA03B000BDC0460C1C061065
:10501000981B061010B50DF095F80CF057FA10BD5E
:10502000F0B5C64600B5C2B001281CDD114B002406
:10503000984680000D1D0E1802AF3819414604CD68
:10504000FEF762F82418AE42F7D13A2204200A4B48
:105050000A49009730F022FA38005AF0FDFA42B0BF
:1050600080BCB846F0BD3022054B0449032030F027
:1050700015FAF4E7301C0610341C0610981B0610B5
:10508000201C061010B50621014812F00BF910BDC6
:1050900048030020F0B5DE4657464E4645460123FC
:1050A000E0B589B00C000093160000210022013306
:1050B00000F0E0FC634D82462C60002E00D19BE0A6
:1050C000614B62480693624B624E9B46624B05936E
:1050D00053465B689F1D0797A047002F00DC9BE0AD
:1050E000002430002B6801349847A742F9D1574873
:1050F0002B689847594B180004932B6898475346E0
:105100005B68002B00DC98E00022012790465146A6
:10511000424689685A43894691444B4403934B481D
:105120002B689847032430002B68013C9847002CDB
:10513000F9D153465B68002B24DD4A46B146160080
:105140000DE0434550DD039B1B5D1F424CD005988D
:105150002B68984753465B680134A34211DD325DEA
:10516000013B1742EDD1434542DD039B1B5D1F42CE
:105170003ED02B680698984753465B680134A3429B
:10518000EDDC4E46032430002B68013C9847002C90
:10519000F9D12E482B6898472B680498984702232A
:1051A0009C4653465B68E0444345B0DC2B68274887
:1051B0009847079B002B07DD0024079F30002B68D2
:1051C00001349847A742F9D12B68204898472B68AB
:1051D00004989847504600F0A9F809B0F0BCBB46C7
:1051E000B246A946A046F0BD58462B689847B1E79D
:1051F00048462B689847ADE7154B14480693124B69
:10520000154E9B46134B059353465B689F1D0797AE
:10521000A047002F00DD63E70C482B6898470F4B31
:10522000180004932B68984753465B68002B00DDF9
:105230006AE706482B689847C6E704482B689847F2
:10524000BAE7C04630550020A81C061050CF061003
:10525000A41C0610904E0610A01C0610E443061075
:10526000F0B54746CE4680B50768020044698368BA
:10527000C1684668F800C0190530844601204042E4
:1052800081460230804614E015690134013B5461C7
:10529000002D19DBB94220D0002B19DB002917DBC8
:1052A0003D004D43ED189360D1607019755D7F2D01
:1052B0000FD9601C33D0002CE6D01569013C0133B6
:1052C00049195461002DE5DA002913DB002BE7DAD8
:1052D0000020C0BCB946B046F0BD48461061906998
:1052E0000139023B0028D7D1062BD5D13900013B2B
:1052F0000939D3E7414611619169023B002905D183
:10530000062B08D0002BE3DB1D00CCE7002BDFDBF6
:105310001D000021C7E7654609210523C3E70020DA
:105320007943CB185061F018D3E7C04610B5041E7E
:1053300005D08068FEF75EFF2000FEF75BFF10BD22
:10534000F0B5DE4657464E464546E0B5036999B08E
:1053500083460393002B00D1EFE003680993013BE0
:10536000032B00D9DCE00479022C00D9D8E02020FE
:10537000FEF70AFF8246002800D139E3099B21008D
:105380000360180003F018F9534658605B46079015
:1053900019790400186803F027F9534698605B46B2
:1053A0000A901979186803F0F3F85246E3001B1AC3
:1053B000936158460C9300F0F9FE52460190D0607C
:1053C000002800D178E20A98FEF7DEFE52460590EA
:1053D0001061002800D14AE310210120FEF7E6FE0B
:1053E0005246031E0690506100D13BE31C000A990F
:1053F000019A079859609A601860059BE36001F074
:10540000C9FE00235246099CD361200003F0F6F840
:105410000E90200003F030F90D90002800D1DBE25F
:105420000E9B10AF1093013B7860129313930122EF
:105430005242D317149215930123BB61079B002B93
:1054400000DC2FE2002308930B935B46D4460F93B6
:10545000089B079A934200DB08E2019AD35C04930D
:105460006246089B01330893D3610C9B002B00D14B
:10547000F6E10822079B03920B9A013B934200D16D
:1054800002E200239A4680339946BB693C689846FD
:10549000E000001905300290601E834640467E6899
:1054A0007969BB68FA68009016E038690131013B00
:1054B000796100281CDB944200D143E1002B1CDB06
:1054C000002A1ADB10006043C018BB60FA60351870
:1054D000305C7F2800D858E1481C00D1A2E10029A7
:1054E000E3D0386901390133121879610028E2DA12
:1054F000002A00DA35E1002BE4DAE2460198FEF7F3
:1055000079FE0598FEF776FE0698FEF773FE504684
:10551000FEF770FE002301930D98FEF76BFE04E08A
:105520001622D14B1A6000230193019819B0F0BCE8
:10553000BB46B246A946A046F0BD0368282BEFD86B
:105540000379032BECD82420FEF71EFE8246031EAF
:1055500000D14EE2584600F029FE52460190D0603C
:10556000002800D1A8E15B4610AF197918683A000D
:1055700001F0BCF95B4652461B68F868136008935B
:105580005346109A84465A617B68110099464C46EE
:105590003B690792434362439B1852460093536012
:1055A000BB68614404915943069091600800984695
:1055B0000991FEF7E9FD524605901061002800D1DF
:1055C00055E2049B102193611800FEF7EFFD52464F
:1055D0000290D061002800D144E2079B002B00DC40
:1055E0005BE10023BA464F469946059E019D029C09
:1055F00006924346A5606360E66033002A00276098
:105600004146380001F0C6FD01239C46109BE14451
:10561000ED19464410349945EBDB069B57469A46F4
:10562000139B0693002B21D0149A9146129A904610
:105630001CDD00235246BA464F4699460692434621
:10564000A5606360E66033002A00276041463800A9
:1056500001F0A0FD01239C46139BE144ED19464453
:1056600010349945EBDB069B57469A465346002477
:10567000089D1C62280001F0EFF80A90280001F054
:105680007DF98046002800D1B7E142460A9B10937D
:10569000013B7A601293139301225242D317149262
:1056A0001593009BBC61002B00DC12E100229146A7
:1056B000099A0024944663440B93009BA34231DD76
:1056C00020000499FDF7EAFD029B1B6806939842AF
:1056D00002DB079B9C466144029B09019C46614496
:1056E0008B681E5C534601341C62082580243800F8
:1056F000FFF7B6FD002800D1A0E0230033405A1E7A
:105700009341013D03706408002DF0D101239C46B4
:10571000009BE144994500D1DBE053461C6A009BA5
:10572000A342CDDC0B9BA34200DCABE0009B0499C1
:10573000E01AFDF7B3FD029B09019C466144CB686A
:105740001E5CCFE7012252423A61009A023B002AD6
:1057500066D15A46062B00D0B0E62200013B093A3A
:10576000AEE601223A61009A023B002A01D1062BE3
:1057700060D0002B00DAC0E600221800BB60FA609F
:105780003518305C7F2800D9A6E64B46049A1340B2
:105790005A1E93412B704B465B089946012398464D
:1057A000039BC2449A4500DA6FE60B9B079A0133CC
:1057B0000B93934200D04BE60F9BE2469B460A9B1D
:1057C000002B00DC23E100229C4603230092079A71
:1057D00098466244089B0292079A9A4270DD019AA9
:1057E000D65C52460133D3610223082580249946B2
:1057F0003800FFF735FD002800D17FE6344254D150
:105800004B46013D03706408002DF1D1009B0A9ABC
:1058100001330093934200D1F9E05346DB69DBE7A3
:105820005A464BE600215443E51875197961002D5D
:10583000ABD162E609220523029846E60198FEF7FD
:10584000D9FC0598FEF7D6FC0298FEF7D3FC50462B
:10585000FEF7D0FC002301934046FEF7CBFC64E644
:10586000082303930DE6C046E44F00200A99130075
:1058700088460899434499420CDA8B1A059AD35CFE
:105880000493EDE5002630E70C9B0393002B00DD2D
:10589000F7E58AE700230493E7E50400059E019DF0
:1058A000069BBFE60023089389E74346013D03704A
:1058B0006408002D9CD1A9E75046FEF79BFC34E616
:1058C000029A9A4200DCA0E0079A05999A1A8E5C27
:1058D00087E70023099A06939446009B63440C9340
:1058E000002A30DD53461C6A009BA34265DD200080
:1058F0000499FDF7D3FC029B1B680B93984202DBD3
:10590000079B9C466144029B09019C4661448B684D
:105910001E5C534601341C620223082580249946EC
:105920003800FFF79DFC002888D034423ED14B461A
:10593000013D03706408002DF2D1069B099A0133E2
:1059400006939342CED10198FEF754FC0598FEF7DA
:1059500051FC0298FEF74EFC5046FEF74BFC0898AF
:1059600000F082FF0225041E0BDD3800FFF778FCF3
:10597000002800D16EE7039B0570013303939C421E
:10598000F3D15B4641461A790A9802F097FD041E4E
:1059900000D15FE70C20FEF7F7FB0190002856D0FE
:1059A000089A846002600A9A426055E70323013D29
:1059B00003706408002DB3D1BFE70C9B9C421ADA38
:1059C000009B0499E01AFDF769FC029A0B019446CA
:1059D0006344DB681E5C9CE70198FEF70BFC0598AE
:1059E000FEF708FC0698FEF705FC5046FEF702FCA1
:1059F0000023019399E500268EE70198FEF7FAFB54
:105A00000598FEF7F7FB0298EDE70026ECE6019813
:105A1000FEF7F0FB0598FEF7EDFB0698FEF7EAFBB4
:105A20005046FEF7E7FB5B460D991A79099802F09C
:105A3000C3FF041E13D00C20FEF7A6FB0190002824
:105A400009D0099A846002600E9A426064E52000E1
:105A5000FEF7D0FB00E72000FEF7CCFB5CE500235F
:105A6000019359E50198FEF7C5FB0598BBE701983E
:105A7000B9E7C04670B504001E0008001100002CF4
:105A800018D0023BDBB2012B14D800F021FB051E1D
:105A900015D0010032002000049B01F053FF0028C4
:105AA0000FDB2800FFF74CFC0400280000F044FB4B
:105AB000200070BD1622054B00241A60F8E7002470
:105AC000F6E7280000F038FB0024F1E7E44F00205F
:105AD000F0B5C64605000C00160000B5062808D033
