:020000041000EA
:1000000000B5324B212058609868022188439860DF
:10001000D860186158612E4B002199600221596106
:100020000121F02299502B49196001219960352056
:1000300000F044F80222904214D00621196600F024
:1000400034F8196E01211966002018661A6600F04E
:100050002CF8196E196E196E052000F02FF8012189
:100060000842F9D1002199601B49196000215960AB
:100070001A491B48016001219960EB211966A021F2
:10008000196600F012F800219960164914480160C1
:100090000121996001BC002800D000471248134993
:1000A000086003C880F30888084703B5996A0420EC
:1000B0000142FBD001200142F8D103BD02B5186610
:1000C0001866FFF7F2FF186E186E02BD00000240BE
:1000D000000000180000070000035F00212200005C
:1000E000F4000018222000A00001001008ED00E03C
:1000F00000000000000000000000000074B24E7A12
:1001000000200420F7010010C3010010C5010010F9
:10011000C1010010C1010010C1010010C101001097
:10012000C1010010C1010010C1010010C701001081
:10013000C1010010C1010010C9010010CB01001065
:10014000CD010010CD010010CD010010CD01001037
:10015000CD010010CD010010CD010010CD01001027
:10016000CD010010CD010010CD010010CD01001017
:10017000CD010010CD010010CD010010CD01001007
:10018000CD010010CD010010CD010010CD010010F7
:10019000CD010010CD010010CD010010CD010010E7
:1001A000CD010010CD010010CD010010CD010010D7
:1001B000CD010010CD010010CD010010CD010010C7
:1001C00000BE00BE00BE00BE00BE00BEEFF3058054
:1001D000103800BEF2EB88710C5205103052051039
:1001E0003402001090A31AE700201F49086006C8D7
:1001F00081F3088810471D48006800282FD10DA4FE
:100200000ECC002902D000F012F8F9E71849194A7B
:10021000002000E001C19142FCD1174988471749ED
:1002200088471749884700BEFDE701C901C29A42C5
:10023000FBD3704730520510C0000020FC040020A2
:100240006C56051000000420000004206C560510B8
:10025000001004200010042000000000704709482E
:100260000CF0FEFF0047000008ED00E0000000D0A9
:100270002005002034CA0220113F0110550400104F
:10028000054001105756000006005250ABB36053B2
:10029000F849051006005250861C0302084A051052
:1002A000060052505422A29D184A051005005250D3
:1002B000DE65F4686C560510F8B5C04610B5064CFE
:1002C0002378002B07D1054B002B02D0044800E017
:1002D00000BF0123237010BDA00700200000000014
:1002E00078AF0110044B10B5002B03D0034904482C
:1002F00000E000BF10BDC04600000000A4070020C1
:1003000078AF011070B5074815F008FF00240125EB
:10031000210000200EF0B2FC6C40C820E4B219F0BD
:10032000ADFDF5E778AF011070B5069B0D4D1C0DC6
:100330002B6808981B192B6015F072FC00220A4BE1
:1003400015F0EBFB15F0B4FC15F03CFD02000B00C2
:100350000648210015F084FF2968054815F080FF44
:1003600070BDC046FCC8002000408F408CAF01101B
:10037000C4AF011010B582B00EF090FC00282ED151
:100380000EF020FC1B4815F0C9FE1B481B4B01005A
:100390001B4A0EF025FC041E26D11A4815F0BEFE9D
:1003A0000123802218495200009318480023019429
:1003B00019F0DAFD13F09AF8154B186804300CF0B8
:1003C000E3F80100134815F04BFF0021124816F026
:1003D00091FB13F095F8114819F050FDFBE7104818
:1003E00015F09CFE02B010BD0E4815F097FE0120DE
:1003F00013F008FE0CB00110F0AF011030750000D2
:100400000400400038B0011044B001100503001092
:1004100008B5002050B0011029030010102700007B
:10042000F4AF011024B0011000B585B003AB019307
:10043000802202230549009352000023044819F04A
:1004400093FD19F053FA05B000BDC04674B0011019
:100450007503001010B515F00FFF0449044815F09E
:10046000FFFEFFF7E1FF002010BDC04684B0011081
:1004700094B001100022024B00201A607047C04661
:10048000F818002010B500230022002117F04CF9C5
:1004900010BDC046154B10B51860154B1A78002AD0
:1004A0001CD101321A7000210232012017F0F8F835
:1004B000032204000021012017F0F2F80D4B210067
:1004C00018600D480CF05EF901212000494217F038
:1004D000BBFB200017F078FC012010BD054B00226B
:1004E00000211868002317F01FF9F5E7F81800201D
:1004F00028CA0220F4C800208504001010B5036843
:1005000000221B690149984710BDC04675040010C0
:1005100070B5094C2368002B08D1084D01212868CB
:10052000494217F091FB2368002BF7D0206803683D
:100530005B68984770BDC046F8180020F4C80020DA
:10054000034B10B5186803689B68984710BDC046F8
:10055000F8180020020083680832002B04D107E05D
:100560001A001B68002B03D09942F9D1002003E048
:100570000023012011600B607047C0468368002B88
:1005800008D0994202D107E0994207D01A001B68AF
:10059000002BF9D100207047020008320B680120BF
:1005A0001360F8E74368021D002B04D107E01A002E
:1005B0001B68002B03D09942F9D1002003E00023EF
:1005C000012011600B6070474368002B08D09942EE
:1005D00002D107E0994206D01A001B68002BF9D11E
:1005E00000207047021D0B6801201360F9E7C04628
:1005F000F8B54746CE468368804680B5002B29D0A3
:100600000823434499460DF013FF43469E680400B7
:100610000D00002E58D000234F469C46B268F36868
:1006200020002900801A9941002902DB14001D00D6
:10063000BC4637003668002EF0D16346002B43D00D
:10064000196840460A681A604B68984743469B6899
:10065000002BD8D143465C68002C31D00025237A8A
:10066000002B29D0210063682572404698472468F2
:10067000002CF4D1174B1868596843469E68002E29
:1006800004D112E020002900002E0ED03300020019
:100690009C68DD680B00121BAB413668002BF1DC57
:1006A000F2D1002AEED1002EF0D1434618615961F3
:1006B000C0BCB946B046F8BD2468002CCFD1D9E7FC
:1006C000044B18685968F0E743465C68002CC5D1B4
:1006D000D0E7C04698CD0110024B18688007C00FC4
:1006E0007047C04600C0064010B501F055FC0CF044
:1006F0001DF900F01FFB00F02DFD00F0D7FD06F006
:1007000009FA01F0D9FC00F057F906F083F910BDA1
:1007100040BA80B27047C04600BA7047F8B5474645
:10072000CE4680B50701040038180001103081461C
:10073000404D414E2B688846B144002B02D02A7AA6
:10074000A24258D0EB68002B02D02A7DA2424BD0A7
:10075000AB69002B03D02022AA5CA2423DD06B6A79
:10076000002B03D02C22AA5CA2422FD03B191B01E4
:10077000F318DB7B002C04D0B27A022A41D0012C82
:1007800006D08D225200B25C022A43D0022C05D042
:100790002A4AB25C022A43D0032C03D0284AB25C16
:1007A000022A42D0032B0DD8264D9B00585906F043
:1007B0009FFC00223C1924013619F37B9B005A51FF
:1007C0000423F373C0BCB946B046F8BD4146484661
:1007D000AA6A984700236B62C8E741464846EA691F
:1007E00098470023AB61BAE7414648462A699847D3
:1007F0000023EB60ACE748466A68984700232B600B
:10080000A0E7F27B9A42BAD104233C19240136199D
:10081000F373D7E72022FF32B25C9A42B6D1F3E7F6
:10082000094AB25C9A42B7D1EEE7084AB25C9A42F2
:10083000B8D1E9E7441400207C1400202A0200000B
:100840003A030000341400202F0200003F03000090
:10085000F0B5DE464E46574645468346E0B50301B1
:1008600087B04F4A01935B441B01D618F27A012AE4
:1008700000D992E04B4992008C58002C00D17FE0C7
:1008800010331D00464B9C46654428001AF0D2FAEE
:10089000A022123081B29200362000F017FF81466C
:1008A000002866D003AC0C220021200015F0CCFA01
:1008B0003089FFF72DFF01232080A3700C22FF3326
:1008C00021004846A38001F0D3F9374B0C269A4605
:1008D0004F46013D6B1C98466B78002445462E2BF5
:1008E00006D156E06B7801340135E4B22E2B01D0ED
:1008F000002BF7D14346EB1A9BB299462300F3181D
:10090000534542DC22003100380001F065FA731CC7
:100910004A469BB234194146380001F0E5F9A3B2CA
:100920002A785E1CB6B2002AD4D11C0031003800EF
:1009300001F052FA1D4B02340422029302A9A3B221
:10094000380001F0D1F9164A019B944615495B44E1
:100950001B0163448C46DA7ADB7B15499B009200CD
:10096000585862443523390006F04CFB380001F03A
:1009700023F807B0F0BCBB46B246A946A046F0BD7E
:100980000021FFF7CBFEB472F3E7380001F014F852
:10099000EFE7002200239146B1E7064813F036FB4B
:1009A0007C14002074140020FEFF000000010001F0
:1009B00034140020B0B001107047C04682B0012846
:1009C00001D902B070478000002903D00A68044BA7
:1009D000C250F6E7034A024B12680192C250F0E798
:1009E00074140020B0CB0110F0B546464F46D646F1
:1009F000464BC0B5464E8D273400002598467F00F3
:100A0000A37A022B35D02CD8002B1FD0414B99460E
:100A1000414B9A460CF028FBB37A80B2022B40D0AF
:100A2000F35D022B43D04B46F35C022B48D0534678
:100A3000F35C022B4DD002230122A37200232081FC
:100A4000E372280022736373FFF702FF013511344C
:100A5000EDB2FF34042DD3D1E0BCBA46B146A8466E
:100A6000F0BD032B4ED12368002B13D10023A372BA
:100A7000ECE7237B013BDBB22373002BE6D1637BE6
:100A80000133DBB26373042B29D023732800FFF7F3
:100A9000DFFEDBE7013B2360002BD7D10023A372ED
:100AA000D4E733898342B5D0F35D022BBBD1173332
:100AB000FF33F35A8342ADD04B46F35C022BB6D1E1
:100AC0008A239B00F35A8342A4D05346F35C022B43
:100AD000B1D1CE239B00F35A8342ACD19AE7E37A9B
:100AE000002B08D142465268002A04D001226373C9
:100AF000E2722273CAE700212800FFF70FFE0023ED
:100B0000A372A3E7054813F081FAC04674140020CD
:100B10007C1400202A0200003A030000E4B0011017
:100B2000F0B583B06B469C1D0023238001331E006B
:100B30000640184205D0002903DD037801396370AF
:100B40000130032213000340104205D00023012985
:100B500038DD03880239023007294BDD08390722C6
:100B60000F009743020005000832BF182A689A1840
:100B70009A429B415B42D2186B680835D318934266
:100B8000924152429B18AF42F0D1CA08551CD20084
:100B9000ED00891A1A044019120C1B0C9B1801292C
:100BA00010DD02889B188A1E012A05DD45885B1925
:100BB000052901DD81885B1851084D1C6D00490035
:100BC0004019511A012901D1027822702288D218C5
:100BD000130C1204120C9B18180C1B041B0CC018CD
:100BE000002E04D0030600041B0C000E184380B234
:100BF00003B0F0BD1A00D0E7F0B54F46D6464646E2
:100C0000C0B591461A68089B8A46196804000B040F
:100C10001B0C090C5B181104090C5918130C5B18F8
:100C2000180C1B041B0CC318180C1B041F0CC71931
:100C3000002C21D0FF230026012598466189606899
:100C4000FFF76EFFC019030C0004070CDF1963895E
:100C50001D4207D042463B06380A1B0C1040034396
:100C60001F006E402468002CE8D1002E04D03B0603
:100C70003F041B0C3F0E1F43534698B2FFF748FD3D
:100C800004004846FFF744FD2018C019030C000477
:100C9000000C1818030C0004000C1818C04380B294
:100CA000E0BCBA46B146A846F0BDC04610B582B019
:100CB000049C0094FFF7A0FF02B010BD10B5FFF731
:100CC0002FFFC04380B210BDF0B5C646040000B58A
:100CD00000282AD0FF230026002701259846618995
:100CE0006068FFF71DFFC019030C0004070CDF1933
:100CF00063891D4207D042463B06380A1B0C104050
:100D000003431F006E402468002CE8D1002E09D058
:100D10003B0638041B0C000E1843C04380B280BC55
:100D2000B846F0BDF84380B2F9E70148F7E7C0469E
:100D3000FFFF000003220E4B10B5033393430D4A0F
:100D400000211360FA220C481201197199180160F0
:100D500001201A600871094909489950094A13602D
:100D60000BF0F4FD002800D110BD074813F04EF938
:100D7000CCB70020C4B70020C8B70020A00FA00F38
:100D800090190020F018002004B10110F8B5DE46DB
:100D900057464E464546E0B500286DD0830700D043
:100DA00083E00400424D083C2B68A34200D970E068
:100DB000404F0C303B68834200D26AE03E4E300028
:100DC0000BF0D4FD2379002B00D16BE0FA232088AF
:100DD0001B0198420ED8628894469A420AD82B6822
:100DE000E21A92B2904662469D18E04505D02A88E4
:100DF000424502D0314813F009F939681A1889467A
:100E00008A4202D051884145F4D1002121712C49F8
:100E10008B460968A14202D959460C6021009C42C8
:100E20003AD34C453BD2944213D01779002F10D1BE
:100E30004A450ED08A4228D0FA2710883F012080E8
:100E40001288BA4205D045469A1855806288944661
:100E50009D18AC420DD02A79002A0AD18C4211D0BB
:100E6000FA212880228809018A4202D09B18624612
:100E70005A8030000BF096FDF0BCBB46B246A94646
:100E8000A046F8BD5A461560EAE759460C602100B5
:100E9000D2E70C4813F0BAF80B4813F0B7F80B4838
:100EA00013F0B4F80A4813F0B1F80A4813F0AEF89A
:100EB000C4B70020C8B700209019002088B10110E5
:100EC000F018002044B10110BCB10110D4B10110E0
:100ED00060B1011020B10110F0B54646D6464F462C
:100EE000424BCC1CC0B51C4006000B2C4ED9FA233B
:100EF0001B019C424DD8A1424BD83D4B1F689A46DE
:100F0000B74200D969E03B4B1B68B34265D908235F
:100F10005B429846B04443461D88DF1BBFB2083D84
:100F2000ED1BADB2A5425BD32AD0334B18009946D6
:100F30000BF01CFD43461A8853461B68981801792C
:100F4000002928D1FA2109018A424CD03A002B49C4
:100F50000832A4180A680588A4B282423AD01A1945
:100F6000002111714146158057800C80FA211288AA
:100F700009018A4201D09B185C8048460BF012FDA3
:100F80003000E0BCBA46B146A846F0BD0C24A142F0
:100F9000B3D90026F4E72100143189B28D42ECD395
:100FA000390008316418FA21A4B209018A421AD022
:100FB0001248191905688D4200D901600A80002085
:100FC000424608714F8014800A88FA2109018A423A
:100FD000D1D1D2E71A190A60C2E7094813F016F80E
:100FE000084813F013F8084813F010F8FCFF00004D
:100FF000C4B70020C8B7002090190020F0180020C6
:10100000F0B1011008B2011028B20110F8B5DE46A7
:1010100057464E464546E0B500283ED0454BC51CD8
:101020001D400B2D36D9FA231B019D4235D8A8420D
:1010300033D8414BFA2718009B460BF097FC3F4BE7
:101040003F0199461B687A1B98463D4B94461E68A3
:1010500043469B1B99B21B041B0C9A4215D90822CC
:101060005242924609E057462088FB1A1B18AB42B1
:101070001AD203000100634507D2F4182279002A2E
:10108000F1D021880B006345F7D358460BF08AFC5A
:10109000002003E00C25A842CBD90020F0BCBB46C1
:1010A000B246A946A046F8BD2F001437BFB2BB42D6
:1010B00025D3FA270835ADB24B193F019BB2BA468A
:1010C000BB4231D0F7183A710122388079802380F1
:1010D00022713A88524501D0B2185380194FA04569
:1010E00012D058460BF05EFC3B682D19AB421ED364
:1010F00020000830A307D1D0134812F087FF012346
:1011000008352371ADB2E9E72300396804E01B8894
:10111000F3181A79002A04D09942F8D14B46196085
:10112000DFE74A461360DCE7084812F06FFF084823
:1011300012F06CFFFCFF000090190020F018002056
:10114000C4B70020C8B700206CB2011028B201104B
:101150003CB2011034230022F0B54746CE469046FB
:10116000994603320425944680B5124F124B134C16
:10117000B94441463A682160614603338B43002DF0
:101180000BD016880021002200E003000132196014
:10119000981919002360AA42F7DB0437B94504D037
:1011A0003A68946853685588E3E7C0BCB946B046CE
:1011B000F0BDC04690B301104CAC0020E4B4002058
:1011C00010B50C2810D80B4B8000C4580BF0B4FBA2
:1011D000A3681C68002C03D022681A60A30705D1FD
:1011E0000BF0B0FB200010BD0024FBE7024812F01A
:1011F0000DFFC04690B30110B0B2011070B50C00E5
:101200000C280ED800290CD0084B8000C5588B073D
:1012100008D10BF091FBAB681A6822601C600BF0E0
:1012200091FB70BD024812F0F1FEC04690B3011070
:10123000D4B201100C2040427047C04670B5050082
:101240000C00160082B000292AD043680A689A422E
:1012500001D102B070BD3360300001A9019202F0EB
:101260001FFA300001A905F06FFF01A9300000F05E
:1012700073FE392322686A60E95C343B0B40052B1E
:1012800005D0EB69002BE4D028009847E1E7002A5D
:10129000F7D00B07F5D52800291D09F0E9FFF0E785
:1012A000014812F0B3FEC046C4B301107047C046F7
:1012B000F0B5C64600B504000E001700984682B08F
:1012C00000286AD0099B002B67D0002900D174E068
:1012D000002F00D16FE04346002B69D03F4B002523
:1012E00063610022392320006560A560E5602586E2
:1012F0000021E2542830042214F0A6FD089BE56189
:1013000063623C232562364D2A78E2540A9B2361AE
:101310003368002B3AD13100200001AAFFF78EFF7D
:101320000122A168E0683B68994200D0A36043466F
:101330001B68984200D0E360002A33D02000099B4C
:101340009847002829D1274B3C2698461F683C2304
:10135000E05C00239C46FF2802D163460020A35591
:10136000002F2CD0BC4236D03B00FF2207E01B6888
:10137000002B24D09C422ED0013A002A0AD0995D3D
:101380008142F4D10130C0B2A055E4E70020002131
:101390000022C8E7144812F039FE002002B080BCD9
:1013A000B846F0BD3100200001AAFFF747FFC5E7AE
:1013B0000E4B984692E70D4F8DE70C4E88E7FE28BE
:1013C00007D00130C0B243462870276020001C605F
:1013D000E4E70020F7E7064812F018FE3512001087
:1013E0002CCA022008B50020E8B30110B0CB0110D0
:1013F000D4B30110F0B504000D0016001F0083B037
:1014000000294ED0002E4AD0002F46D02B68002253
:10141000002B0CD03368A1688B4200D0A3603B68DE
:10142000E1688B4230D1002A31D003B0F0BD616851
:1014300001220029EED06846009101A9019302F033
:101440002FF9684601A905F07FFE01A9684600F062
:1014500083FD39232A686260E15C343B0B40052B35
:1014600007D1002A05D00B0703D52000211D09F064
:10147000FFFEE369002B01D0200098473368A16884
:1014800001228B42CBD0C9E7E360002ACDD16A4666
:1014900029002000FFF7D2FEC7E7034FB6E7024E50
:1014A000B2E7014DAEE7C046B0CB011070B5041EE7
:1014B00016D04368002B17D139220121A35C1942B1
:1014C00024D11D4B1A68A2422ED01C4A1368A34295
:1014D00004D126E01A68A24203D01300002BF9D1F0
:1014E00070BD22681A60FBE7051D0021280002F08C
:1014F000D7F80021280005F027FE0021280000F081
:101500002BFD39220121A35C1942DAD0180088434F
:10151000A0541B070BD4E369002BD2D020009847BE
:10152000CFE723681360DBE700221A60CDE72000D5
:1015300009F0FCFAEFE7C04604B5002008B500202A
:10154000014B18607047C04604B5002070B5041EFA
:1015500015D03925435DDA0711D401221343DBB2DC
:101560004355C269002A01D09047635D05221A40A5
:10157000052A04D16268002A01D01B0700D470BD7F
:101580002000211D09F074FEF9E7C04670B5041E65
:1015900003D03925435D5A0700D570BD042213439B
:1015A000435506F087FD0523625D1340052B05D0EA
:1015B000236A002BF1D020009847EEE76368002BE8
:1015C000F6D01307F4D52000211D09F051FEEFE7F6
:1015D00010B500280AD039220421835C194205D0B5
:1015E0008B438354036A002B00D0984710BDC0463C
:1015F000021E0ED0084B1868002809D03C2102E0DA
:101600000068002804D0435C0133DBB29342F7D179
:1016100070470020FCE7C04608B5002010B50BF06D
:101620008BF90022084B1A700BF08CF9074B1868E5
:10163000002803D107E0C068002804D0436F002BC6
:10164000F9D002F07BF810BD2DCA0220C8C80020D6
:10165000F8B505000026002826D00F270BE0012B47
:1016600024D0002B2AD12800FFF790FB0136F6B2D8
:10167000002C19D025000BF05FF9AC7B002C1AD0A0
:10168000013CE4B2AC730BF05DF9002C0CD12B7B68
:101690002C683B40022BE2D129000C200136FFF7D9
:1016A000ADFDF6B2002CE5D13000F8BD29000B20CD
:1016B000FFF7A4FDDAE7034812F0A8FC024812F095
:1016C000A5FCC04618B4011030B40110F0B5C12318
:1016D0004F464646D6468046C0B50D00170084B238
:1016E0005B009A4244D009D81400433BFF3B9C4323
:1016F000012C00D16EE0454812F088FCA0239B002D
:101700009A42F8D1E31C0324CA1CA343A2439B18AA
:101710009BB21800103080B2934222D3824220D86C
:10172000FFF774FC061E1DD0002303604346C71854
:101730001337374B2904A7430D4347608560C360C7
:1017400010E00BF0F9F80123324D2C782B70E4B245
:101750000BF0F8F8002C4CD0002E02D03000FFF730
:1017600077FF00263000E0BCBA46B146A846F0BD7F
:1017700000239846284B00269A46002303279946C3
:1017800007E043466D1AADB21860002DEAD08046DE
:1017900000240C20FFF714FD0028D2D05246E31C91
:1017A000BB43D31A1A1C9BB2AB4200D92A1C4B462E
:1017B000041903601334194BBC4391B24460058192
:1017C0004281C360002EDCD16D1AADB20600002D3F
:1017D000DDD1C7E70B20FFF7F3FC061EC2D00023C4
:1017E00029040D4303604360856007734373C4811C
:1017F000B8E700210A480AF09DFF0028ACD00BF0A2
:101800009BF82C700BF09EF8A6E7C04644B401107C
:10181000800001002DCA0220EC05000082000100BA
:101820001D16001070B5041E34D002898A421CD9DE
:101830000D008A1A07E023896D1A9B1823812468FA
:10184000ADB2002C20D06189A942F4D3237B1B07C1
:1018500001D1A9420AD1290420682943A1600028A6
:1018600001D0FFF7F5FE0023236070BD6368200000
:10187000191B691889B2FFF72FFB002807D0844293
:10188000E9D0064812F0C2FB054812F0BFFB05483C
:1018900012F0BCFB044812F0B9FBC046ACB4011016
:1018A00078B4011090B4011060B40110030070B559
:1018B000002820D08022520291421AD2002916D04C
:1018C00002898CB2A21892B2944212D8057B0120F0
:1018D0007F2D0DD95D68691A1D001035A94207D307
:1018E00059605989002064185C811A8100E0002049
:1018F00070BD0120FCE7014812F088FB344B051055
:1019000010B5002818D080235B02994212D200291A
:101910000ED043898AB29A420CD844689B1AA446D6
:101920004381038961449A1A41600281002010BDFD
:101930000020FCE70120FAE7014812F067FBC046EF
:10194000344B051010B5002915DB00282FD00029D5
:1019500023D003898AB2D3189BB29A4225D8047B3C
:101960007F2C1CD84468611A416041890381521858
:101970004281002010BD002819D0494243898AB213
:101980009A4212D844689B1AA44643810389614451
:101990009A1A416002810020ECE70020EAE74468DF
:1019A000611A04001034A142DED20120E2E70148AE
:1019B00012F02CFB344B051010B5002802D0FFF7B5
:1019C00047FE10BD014812F021FBC046344B051004
:1019D00003000020002B04D01B68013080B2002BD4
:1019E000FAD1704710B5041E09D00AF0A5FFA37BF9
:1019F0000133A3730AF0A6FFA37B002B00D010BD18
:101A0000014812F003FBC046C8B4011010B500280D
:101A100014D0002912D00368002B07D002890C894A
:101A20001219028118001B68002BF7D10289438923
:101A3000934204D10A8901609B18038110BD0148BB
:101A400012F0E4FADCB4011010B50C0000281FD02D
:101A500000291CD00368002B07D002892189521865
:101A6000028118001B68002BF7D102894389934239
:101A700014D1228904609B1803810AF05DFFA37BC7
:101A80000133A3730AF05EFFA37B002B03D010BDCC
:101A90000029FCD0F1E7034812F0B8FA024812F02E
:101AA000B5FAC046C8B40110DCB40110F0B54F4619
:101AB000D64646468146C0B5884692461F00002954
:101AC00000D184E00B89934200D280E0002800D14D
:101AD0007DE053460289FB189A4200DA77E000263F
:101AE00044890CE043465A891B899A423DD04B46B3
:101AF0005C891B899C424DD05346002B57D04346EE
:101B00005B89E41B9B1B9C4200D91C005546A245E7
:101B100000D925004B465B682A00D81943465B680C
:101B20007F19991914F096F9534676195D1BABB2DB
:101B30009A464B465C89BC424CD343465B89B342D0
:101B40004BD305D143461B6800269846002B17D07F
:101B5000BC42C7D14B461B689946002B1FD0434659
:101B60005A891B8900279A42C1D143461B68002B22
:101B7000BDD006204042E0BCBA46B146A846F0BD02
:101B80005346002B23D1BC4219D04B461B899C42A3
:101B90000DD100264B461B68002BADD0E9E753461C
:101BA000002B14D143461A895B899A4201D0002048
:101BB000E1E743461B68002BDBD10020DBE74B4607
:101BC0001B689946002BF2D000275C89DDE71020C6
:101BD0004042D0E7024812F019FA024812F016FA11
:101BE0000CB5011024B5011010B5002904D0002354
:101BF0000A89FFF75BFF10BD10204042FBE7C0469B
:101C0000F0B5C6460500884616001900002700B545
:101C1000002828D04346002B25D0002A05D122E0F9
:101C20002D68091B89B2002D1DD06C89002901D0B7
:101C3000A142F5D2641AA4B2321CA64200D9221CD9
:101C40004346D8196B6894B29C46361B2200614407
:101C5000E719B6B214F0FEF8BFB22D68002E02D01C
:101C60000021002DE1D1380080BCB846F0BDC0464F
:101C7000F8B5CE46474605008846914680B500280F
:101C800024D0002922D0038993421CD316000027B8
:101C9000002A02D112E0002D1BD06C89B44200D979
:101CA000340043466868D919220014F0D3F8361B73
:101CB0002D683F19002EEED1B9450DD10020C0BCD2
:101CC000B946B046F8BD01204042F8E71020404236
:101CD000F5E7034812F09AF9024812F097F9C04666
:101CE00040B5011058B50110F0B5D6464F464646EE
:101CF00004008A46C0B5002805D13AE024685B1B81
:101D00009BB2002C35D065899D42F7D921899F1857
:101D1000B9422EDBE91A8A4232DD8AB29046626805
:101D20005146D0187D1B424614F094F8ABB2994648
:101D3000002B1CD02568002D29D02B894B4518D3AA
:101D40004F46002601E0002D24D06C89BC4200D90A
:101D50003C004346F11868682200514414F07AF8B8
:101D60003F1B2D683619002FEDD1B14515D100204C
:101D700001E001204042E0BCBA46B146A846F0BDB1
:101D800060685146C01814F065F80020F3E7102091
:101D90004042F0E7024812F039F9024812F036F9F1
:101DA00040B5011058B501100B0070B51500118930
:101DB0001A00FFF78BFC041E06D0002329002A8995
:101DC000FFF774FE002801D1200070BD014812F019
:101DD0001DF9C04670B5011005E043898B4205D856
:101DE000C91A006889B20028F7D1704743685A546D
:101DF000FBE7C046F0B5170002899C46CB180C00E3
:101E00009A422CDB4389A34204D80068E41AA4B2A6
:101E10000028F7D1634600250026002B16D0A31911
:101E200002009BB2002805D112E012685B1A9BB237
:101E3000002A0DD051899942F7D95268D35C7A5D56
:101E40009A4209D10135AEB2B445E8D80020F0BDC0
:101E500000237A5D9A42F5D00136B0B2F7E7014827
:101E6000F5E7C046FFFF0000F0B5DE4645465746A1
:101E70004E468146E0B5344F83B0396878690AF040
:101E800065FB4B465A68314B80461C689B460020D8
:101E9000557A002C3AD00026844604E0E3682600F8
:101EA000002B32D01C00237CAB42F7D1217A0029D1
:101EB00006D03C237868C35C0133DBB29942EDD194
:101EC0004346002B29D02368002BE7D10121637CF6
:101ED000194203D0636839698B42DFD163699A463E
:101EE000002BDBD0019221004A46194BA069D04754
:101EF000002819D14B465A68019B9A4221D10223EE
:101F00009C46E3682600002BCCD1604603B0F0BCB1
:101F1000BB46B246A946A046F0BD2368002BD5D0EB
:101F200079698B42BAD1D1E7002E08D0E36801204D
:101F3000F3605B461B68E3605B461C60E6E70120DC
:101F4000E4E7044812F062F8D418002088C70020A3
:101F5000E418002084B5011010B5002811D00268E3
:101F6000002A0ED000290CD00B68002B09D0094B99
:101F70001B68002B05D01C68944203D0DB68002B43
:101F8000F9D110BD0A681A60DB68002BF9D002682D
:101F9000F1E7C04688C700207047C04610B5041E50
:101FA00023D0037D042B05D0072B0FD00020032B5B
:101FB00000D010BD200003F0F5FD00280AD1052354
:101FC0002375200004F01AF90020F2E703F0EAFD7F
:101FD000002807D0431CECD10822638B0020134358
:101FE0006383E6E709232375EBE7014812F00EF857
:101FF000D0B5011070B50600806F002803D0FFF740
:10200000DBFC0023B367746F002C18D06068256870
:1020100000280CD0FFF7D0FC21000420FFF7EEF8D9
:10202000002D0AD02C00606825680028F2D121001C
:102030000420FFF7E3F8002DF4D100237367012398
:10204000F46E5B423386002C16D060682568002849
:102050000CD0FFF7B1FC21000420FFF7CFF8002DD2
:102060000AD02C00606825680028F2D121000420E5
:10207000FFF7C4F8002DF4D1346F002C16D060683F
:10208000256800280CD0FFF797FC21000420FFF7FB
:10209000B5F8002D0AD02C00606825680028F2D120
:1020A00021000420FFF7AAF8002DF4D100236822B4
:1020B000F3663367B35270BD10B50AF0D5FF044B19
:1020C00080049C46800C034B6044188010BDC046C1
:1020D00000C0FFFFE403002010B5037D0100012BC9
:1020E00003D00220FFF78AF810BD014811F08EFFDF
:1020F000DCB50110F8B5CE46474680B5002963D05F
:10210000002866D0037D002B60D1002A2BD0324EF0
:102110003700103733681B68002B03D113E0DB68EE
:10212000002B10D0DC8A9442F9D11C68002C04D01A
:102130000D68002D01D0AC42F1D108204042C0BC56
:10214000B946B046F8BD0436BE42E3D10B68002B59
:1021500000D00360214BC2821A681860C26004F08C
:1021600039FC0020EBE71E4B802698461A881D4B51
:10217000194F9C4610239946F601B944013292B298
:10218000624514D03D002B681B68002B03D111E081
:10219000DB68002B0ED0DC8A9442F9D1013EB6B246
:1021A000002EEBD1434602201A804042C7E7C022EE
:1021B0001202E7E704354D45E5D143461A80002A6F
:1021C000C4D102204042BAE7074999E706204042BD
:1021D000B5E710204042B2E75CBA0110CCC800203D
:1021E000E4030020FFFF0000B0CB011070B5041E17
:1021F00033D0037D002B30D10320FEF7E1FF051E15
:102200002BD0012223690361E38A0275C382627DB8
:102210004275A268826022680260002B0CD0154AC9
:1022200013689C4204D11FE0DA68944217D013006F
:10223000002BF9D10023E360237D012B17D021006F
:102240000220FEF7DBFF0C4BAB610C4B1A681D60E4
:10225000EA6004F0BFFB280070BD0025FBE7E268E0
:10226000DA600023E360E7E7E3681360E2E704482D
:1022700011F0CCFECCC80020A52D0010D4C8002041
:10228000DCB50110F8B5031E1FD0078DC16A456A81
:102290005C8E114E781A4019221CB4420BD892B2AF
:1022A000821A0CD5491B0CD48022520291420FD2C3
:1022B00000205985F8BD321C92B2821AF2D45F8593
:1022C000F8E7002200205A85F4E7044811F09EFE4A
:1022D000034811F09BFEC046D0160000F0B5011077
:1022E00014B60110F8B500281DD0037D012B34D0A1
:1022F000028D1D4B511889B299421BD91900466AAB
:10230000458E1A4FC46A0185F3182A1CBD420BD8AA
:1023100092B212199A1A11D5A41B1BD48022520210
:1023200094421DD24485F8BD3A1C92B212199A1AF1
:10233000F2D403E08A42E1D80B00E0E70C4A418581
:102340001B1B9342EFD90222438B1343438303F0B9
:1023500055FFE8E700234385E5E7064811F056FE00
:10236000054811F053FEC046A02D0000D016000015
:10237000670B000030B6011014B60110F8B55746CF
:10238000DE464E4645460400E0B51F00002800D159
:10239000ADE0002900D1AAE0037D002B00D0A3E02E
:1023A0000B6802834360007A002834D1201D09F0B5
:1023B000A3FD002800D19DE02368002B01D14368D4
:1023C0002360E38A9846002B33D14C4B80269A46F3
:1023D00019884B4BF6019C464A4B9946102363449F
:1023E0009B46013189B2494518D065462B681A6869
:1023F000002A03D115E0D268002A12D0D38A8B427A
:10240000F9D1013EB6B2002EEBD15346E6821980D7
:1024100002256D424AE0FFF7EBF8CAE7C021090246
:10242000E3E704355D45E1D15346E1821980002997
:10243000EED0354A354B11681B688C4663441360F7
:102440002365013B00226364A365E365304B626250
:10245000A3626023E2622F4AE252038E002B33D044
:102460000022282B33D8628648230122E2524033CF
:1024700002212000E75003F02BFC051E16D1022399
:1024800023754346002B05D0234A1368A34218D175
:10249000E3681360214B1A681C60E26004F09AFA4A
:1024A00001221F4B20001A7003F0A8FE2800F0BC88
:1024B000BB46B246A946A046F8BDDA68A24210D093
:1024C0001300002BF9D1E5E786229200CBE78621A5
:1024D000283B1A1C9BB289008B4200D90A1C92B27D
:1024E000C1E7E268DA60D5E70A256D42DEE710252C
:1024F0006D42DBE704256D42D8E7C046E4030020C7
:102500005CBA0110FFFF0000E0030020D8C80020E3
:10251000A02DA02DA02D0000CCC80020C8C80020F0
:1025200030CA0220F0B5DE46454657464E46E0B575
:10253000BF4DC04A2B6887B001332B60BD4B1B7861
:1025400001331370BC4B9B465B461C68002C00D1CA
:10255000CCE000230593237D002B00D112E2012B58
:1025600000D115E20A2B00D10FE2B24AA17F127806
:10257000914200D158E1A2774222A25C022B00D105
:10258000FDE00B2A00D9F7E0A122A65C002E00D1C5
:102590005AE1226F002A00D012E2E26E002A00D136
:1025A0000BE2A222A25C0B2A00D9E5E0A020A34AFC
:1025B0009619013E3178225C8A4200D28DE1602377
:1025C000E15A002900D0B9E0200004F021F90028E8
:1025D00000D0BFE0A0230022E254A132A35C062B6E
:1025E00000D9B7E0012700260133A354237D062B31
:1025F00000D1B5E008210800627A104080461142FF
:1026000027D0042B00D05EE12B68226AFA219B1AA6
:1026100099469423E35849009A469823E3589846EC
:102620009C23E05843465843504413F031F8814509
:1026300000D93EE1A3274346E05DFA214343180059
:102640004900504413F024F800239846814500D9EE
:102650004AE1676F002F0AD02B68226A9A1A40233A
:10266000E15E4B005B185B009A4200D305E1237DDD
:10267000032B00D18AE0092B00D0AEE02B68226A40
:102680009B1AF02B00D887E09023E6582000FFF734
:10269000B1FC059B002B00D1ADE05B461B68A3425B
:1026A00000D17EE1059BE268DA604346002B00D052
:1026B000ADE023699946E3689846237D012B00D15C
:1026C0006CE121000220FEF799FD00235C4C237091
:1026D000002E07D00D2148464942B0472378002BF1
:1026E00000D031E74446002C00D034E7554F002499
:1026F0003968002904D11AE00C00C968002916D0F5
:102700000B7D0A2B00D046E12B680A6A9B1AF02B3E
:10271000F2D9002C00D1DAE03B688B4200D143E1D2
:10272000CE68E6600220FEF769FD311EE8D107B0F1
:10273000F0BCBB46B246A946A046F0BD200003F05F
:102740004FF9002800D045E7200003F057FD00288E
:1027500000D03FE7237D01270026062B00D049E764
:10276000638BDB0605D52B68226A9B1A282B00D9C0
:102770003E00002398466CE70227012637E7052A2A
:1027800000D801E700230126984662E72B68226AF9
:102790009B1A282B00D977E7002E00D074E7237FFF
:1027A000627F0133DBB2E66823779A4212D80023B6
:1027B000234A237713708C33E358002B00D17CE03D
:1027C0002100206998471E4B1B78002B00D0BBE6E8
:1027D000002872D00594340085E7002EDFD09022C7
:1027E000A658012B00D854E70A2B00D04EE7059BD2
:1027F000002B00D051E75B461B68A34200D0D9E014
:102800005B46E2681A604346002B00D151E7238BF8
:10281000626A216D0293E38A20000193231D0093D5
:10282000230003F0B5FB44E70594E4685BE7C0468A
:10283000D8C8002032CA0220C8C800206CBA0110D3
:1028400030CA0220DCC800203022A15E5E48228E01
:10285000824202D8013211B221864022A25E0127B3
:102860008A4200DDC3E6200003F0C4FA002848D005
:10287000236F002B42D0237DB9E67868A1463C68DF
:1028800000280CD0FFF798F839000420FEF7B6FCBA
:10289000002C0AD0270078683C680028F2D1390063
:1028A0000420FEF7ABFC002CF4D14C4600236367F8
:1028B000DDE601233E009846CBE6200003F09EFCB7
:1028C000059434000FE7072B00D19DE651E73B68E4
:1028D0008B426CD1CE683E6024E70132D2B22254E2
:1028E0008A4200D237E76AE6200003F021FF002881
:1028F00000D0AEE6E35D0133E355AAE6E36E002BBC
:10290000B9D0237D022B13D03C22A35E3E21625E10
:10291000DB109B184222A15C0A1C0C2929D82B49E8
:10292000D2B28A5C9340284A934220DC4022A352D0
:102930000023482123866033E25A605A131C8242E6
:1029400000D9031C4A209BB25B082352618E4A00C7
:1029500092B2934200D2225248230022E152223303
:10296000E252200003F080FE0127237D3FE6184B52
:10297000DCE70C221549D2B28A5C9340124A93429A
:10298000D4DDF4E7134811F041FB134811F03EFB8E
:10299000124811F03BFB124811F038FB114811F0BE
:1029A00035FB114811F032FB104811F02FFB104895
:1029B00011F02CFB0F4811F029FB0F4811F026FBFA
:1029C0000E4811F023FBC046FE7F00004CBA0110F8
:1029D000FF7F000058B60110B0B6011084B6011098
:1029E000A0B70110DCB5011048B70110D0B7011035
:1029F000F8B7011074B7011010B70110DCB6011060
:102A000070B5041E16D06068256800280CD0FEF74B
:102A1000D3FF21000420FEF7F1FB002D0AD02C008B
:102A2000606825680028F2D121000420FEF7E6FB4B
:102A3000002DF4D170BDC04610B5041E08D040680A
:102A4000002801D0FEF7B8FF21000420FEF7D6FBD6
:102A500010BDC04670B5051E0DD00420FEF7B0FBBA
:102A6000041E06D01022290013F0F4F96068FEF766
:102A7000B9FF200070BD014811F0C8FA20B801105C
:102A8000002800D00161704710B5002804D0037DF4
:102A9000012B02D08423C15010BD014811F0B6FAB9
:102AA0003CB8011010B5002804D0037D012B02D0E2
:102AB0008023C15010BD014811F0A8FA64B801107C
:102AC00010B5002804D0037D012B02D09023C15003
:102AD00010BD014811F09AFA8CB80110002802D0FC
:102AE000037D012B00D070478161FCE710B5002801
:102AF00005D0037D012B03D08C23C150427710BD3C
:102B0000014811F083FAC046B4B8011010B500288E
:102B100006D0037D012B03D90A2B01D0FFF76AFAF7
:102B200010BDC04610B50C1E47D0002848D0036821
:102B30008B4204D12FE0DA68A24224D01300002B8C
:102B4000F9D10023E360237D002B0FD1638BDA07DB
:102B500029D4E36E002B36D1236F002B36D1636F5F
:102B6000002B36D100232375E38210BD0A2BF0D051
:102B7000012BF7D02000FFF73DFA237D0A2BE8D088
:102B8000012BEFD0E2E7E268DA600023E360237D07
:102B9000002BEBD1DAE7CB6803600023E360237DF1
:102BA000002BE3D1D2E7022213436383200003F01A
:102BB00025FB237D012BD5D0CBE7074811F026FA62
:102BC000064811F023FA064811F020FA054811F0E2
:102BD0001DFA054811F01AFAD4B80110F0B8011026
:102BE00010B9011028B9011044B90110F0B54E46D2
:102BF0004546DE465746E0B505000E0087B0002882
:102C000067D0037D012B00D1B3E00A2B00D1A1E0F6
:102C1000026D9246426A059290228258934602695A
:102C20009146002B63D1C38A00269846002B67D0BB
:102C3000534A1368834257D1C368136000232C6F33
:102C400098460026EB60002C5DD1EC6E002C16D06F
:102C50006068276800280CD0FEF7AEFE2100042033
:102C6000FEF7CCFA002F0AD03C00606827680028E5
:102C7000F2D121000420FEF7C1FA002FF4D16C6FCD
:102C8000002C16D06068276800280CD0FEF794FE50
:102C900021000420FEF7B2FA002F0AD03C00606841
:102CA00027680028F2D121000420FEF7A7FA002FA0
:102CB000F4D1002E41D12B7D012B5DD029000220C3
:102CC000FEF79CFA5B46002B03D00D214846494293
:102CD000D84707B0F0BCBB46B246A946A046F0BDF7
:102CE000DA68AA4242D01300002BF9D1A6E7C38AC2
:102CF000010024489846FFF715FF0122224B1A7065
:102D00002C6F002CA1D06068276800280CD0FEF73B
:102D100053FE21000420FEF771FA002F95D03C00ED
:102D2000606827680028F2D121000420FEF766FAC7
:102D3000002F00D189E73C00F2E72B8B514602932C
:102D4000434601932B1D009328002B00059A03F0A6
:102D50001FF9B0E701000D48FFF7E4FE2B7D012BC2
:102D60000AD029000220FEF749FAB2E7EA68DA60E1
:102D700064E7074811F04AF9064811F047F9C046E0
:102D8000CCC80020C8C8002030CA0220DCC80020FF
:102D90005CB90110DCB5011010B50121FFF726FF69
:102DA00010BDC046080010B5002905D00121FFF76D
:102DB0001DFF0D20404210BD014811F027F9C0460B
:102DC00090B90110F0B5C646050000B50220FEF727
:102DD000F7F9041E2AD0A4220021200013F034F8B1
:102DE0006423604A6575E2525F4B4022A362FF2371
:102DF000E372F93BA352E3875C4B5D4A23635D4B6F
:102E00001B6823625C4B1B78A3775C4BA364842311
:102E1000E2505B4A1033E2505A4A0433E25009222E
:102E20000433E250200080BCB846F0BD0827564E5F
:102E30003468002C0AD02000438BE4681F42F8D08D
:102E4000BB434383FFF7AAF8002CF4D14F4B18681B
:102E5000002812D0474B1C68036AE11AC368002B94
:102E600008D01A6AA21A914201D811001800DB6832
:102E7000002BF6D10121FFF7B9FE0220FEF7A0F9E1
:102E8000041EA8D13368002B16D03A4A00211068DE
:102E900002E0DB68002B09D01A7D092AF9D11A6AF1
:102EA000821A9142F5D811001C00F2E7002C03D0E1
:102EB00000212000FFF79AFE0220FEF781F9041E90
:102EC00000D088E73368002B16D02A4A002110680A
:102ED00002E0DB68002B09D01A7D082AF9D11A6AB2
:102EE000821A8A42F5D311001C00F2E7002C03D0AD
:102EF00000212000FFF77AFE0220FEF761F9041E90
:102F000000D068E76BB2002B2ADB002D21D02A000D
:102F10003368013AD2B2002B1BD016490F6800214A
:102F2000884607E0186A3A1A90461C000A00DB68D7
:102F3000002B08D0597D8A42F4D8F8D1186A3E1A7D
:102F40004645F4D3EFE7002C03D001212000FFF722
:102F50004DFE0220FEF734F9041E00D162E73AE785
:102F60007F22D5E7A02D0000A02DA02DFFFF180285
:102F7000C9320010D8C8002032CA02200100A02D9A
:102F800000DD6D00F8240100C8C80020DCC8002066
:102F9000F8B50220FEF714F9041E28D0A42200215F
:102FA000200012F051FF4022642359496275E1521A
:102FB000584BA362FF23E372F93BA352E387564BBE
:102FC000564A2363564B1B682362564B1B78A377E4
:102FD000554BA3648423E250544A1033E250544AC0
:102FE0000433E25009220433E2502000F8BD0826E1
:102FF000504D2C68002C0AD02000438BE4681E4200
:10300000F8D0B3434383FEF7C9FF002CF4D14A4BF9
:103010001868002812D0424B1C68036AE11AC36882
:10302000002B08D01A6AA21A914201D81100180088
:10303000DB68002BF6D10121FFF7D8FD0220FEF757
:10304000BFF8041EAAD12B68002B16D0344A0021E9
:10305000106802E0DB68002B09D01A7D092AF9D13B
:103060001A6A821A9142F5D811001C00F2E7002C6E
:1030700003D000212000FFF7B9FD0220FEF7A0F8E1
:10308000041E00D08AE72B68002B16D0244A0021AA
:10309000106802E0DB68002B09D01A7D082AF9D1FC
:1030A0001A6A821A9142F5D811001C00F2E7002C2E
:1030B00003D000212000FFF799FD0220FEF780F8E1
:1030C000041E00D06AE72B68002B1AD0144A002592
:1030D0003F21166806E0186A11001C00351ADB68EB
:1030E000002B08D05A7D9142F5D8F8D1186A371ACA
:1030F000AF42F4D3F0E7002C03D001212000FFF70A
:1031000075FD0220FEF75CF8041E00D16DE745E76F
:10311000A02D0000A02DA02DFFFF1802C932001025
:10312000D8C8002032CA02200100A02D00DD6D00A9
:10313000F8240100C8C80020DCC8002030B5040015
:1031400085B0002800D19FE0037D002903D0042B27
:103150000DD0072B0BD0012B00D169E0022B4ED0F4
:10316000002B3BD02000FEF719FF05B030BDA26F49
:10317000002A54D0638BDB0600D488E0238B200028
:103180000293E38A626A0193231D0093216D230059
:1031900002F0FEFE237D012B04D90A2B02D0200071
:1031A000FEF728FF3D4A1368A34214D1E368136079
:1031B00000230122E3603A4B1A703A4B1B68A3428A
:1031C00032D0237D012B24D1374810F01FFFDA685D
:1031D000A24250D01300002BF9D1E9E7E38A002B7B
:1031E00017D0324A1368A34204D14AE0DA68A242F7
:1031F00044D01300002BF9D10023E36009E0210043
:103200002648FFF78FFC0122254B1A70237D012BE6
:10321000DAD002202100FDF7F1FF0020A5E7244AC3
:10322000218D9142A6D196E702F046F800209CE756
:10323000204A002110000C3053681B68002B05D079
:10324000DD6FAC4212D0DB68002BF9D10432904222
:10325000F2D121001848FFF765FC237D012B19D01E
:1032600003202100FDF7CAFF00207EE7D967DB6855
:10327000002BE5D1EAE7E268DA6099E7E268DA6014
:10328000BAE7E3681360B7E70C4810F0BFFE0C48DC
:1032900010F0BCFE0B4810F0B9FEC046C8C80020B4
:1032A00030CA0220D0C80020DCB50110CCC80020F4
:1032B000A02D00005CBA0110D4C80020B0B90110E4
:1032C000D0B90110ECB90110F0B5C6460C001500DC
:1032D00000B500294ED0002A2AD00B7D012B4CD0FE
:1032E0001389098D284ACB189BB293421CD913002D
:1032F0009046676A668E254AE06A2385B844311C89
:10330000964200D9111C424689B20918511A18D5A3
:10331000C01B13D480235B02984231D26085280001
:10332000FEF74AFB002006E09942E0D81A00DFE7EA
:103330000020002B12D080BCB846F0BD002363856E
:10334000EDE76385124B121A9A42E8D90222638B89
:1033500020001343638302F051FFE0E70B7D012B54
:1033600003D010224B8B13434B8301212000FFF726
:10337000E5FEE0E710204042DDE7064810F046FE9B
:10338000054810F043FEC046A02D0000D0160000F6
:10339000670B000030B6011014B60110F8B5041E1A
:1033A00032D00023856F6F7B83678433C658002E2D
:1033B0000CD0010000232A000069B04700280BD080
:1033C0000D301ED00520A5674042F8BD2989FEF7C3
:1033D00089FF2800FEF7F0FABB0610D5238D0C4AB2
:1033E000934201D0013323858423E558002D06D074
:1033F0000023002221002069A8470D3001D00020C1
:10340000E3E70D204042E0E710204042DDE7C04600
:10341000A02D0000F0B54F464646D646C0B5204D1B
:10342000204F2B7801332B701F4B99460123984670
:103430004B461C68002C1BD008262B78A27F9A4292
:103440001BD04246A377638B1A421ED11E4216D16F
:10345000E3689A46A36F002B07D0002320003B703F
:10346000FFF79CFF3B78002BE2D15446002CE4D1BF
:10347000E0BCBA46B146A846F0BDE468F6E7B343FF
:1034800020006383FEF78AFDE2E702221343638391
:10349000200002F0B3FE0322638B93436383D5E7DE
:1034A00032CA022030CA0220C8C8002010B5FFF777
:1034B000B1FF054A13780133DBB21370DB0700D488
:1034C00010BDFFF72FF8FBE731CA022030B504002A
:1034D00085B0002800D19BE0037D012B52D0102144
:1034E000428B0A434283042B36D1A26F002A3DD07F
:1034F000238B20000293E38A626A0193231D0093C9
:10350000216D230002F044FD237D012B04D90A2BF9
:1035100002D02000FEF76EFD404A13689C4218D18D
:10352000E368136000230122E3603D4B1A703D4BBA
:103530001B689C421FD0237D012B63D002202100F9
:10354000FDF75CFE002005B030BDDA68944216D06D
:103550001300002BF9D1E5E7072BC6D0022B47D08B
:10356000002B32D02000FEF719FDECE72E4A218D0A
:103570009142BDD1F2E701F09FFE0020E3E7E2684F
:10358000DA60CFE7294A002110000C3053681B682D
:10359000002B05D0DD6FAC4212D0DB68002BF9D1D7
:1035A00004328242F2D121002148FFF7BBFA237D89
:1035B000012B30D003202100FDF720FE0020C2E7C0
:1035C000D967DB68002BE5D1EAE7E38A002BB5D0A9
:1035D000184A13689C4208D1E36813600023E36033
:1035E000ACE7DA68944210D01300002BF9D1F5E76C
:1035F00021000A48FFF796FA0122094B1A70237D31
:10360000012B9BD10C4810F001FDE268DA60E5E780
:103610001020404297E7094810F0F8FCC8C8002085
:1036200030CA0220D0C80020A02D00005CBA0110D2
:10363000D4C80020CCC80020DCB50110ECB90110C2
:1036400010B5002807D0054B054A10681A68944643
:103650006044186010BD034810F0D8FCE00300205F
:10366000D8C8002008BA011010B5002A12D00029CD
:103670000AD00B8E002B07D0282B06D9283B1A1C0A
:103680009BB2834203D890B210BD0020FCE7021C1D
:1036900090B2F9E7014810F0B9FCC04624BA011015
:1036A00070B504000D00002802D00368002B00D183
:1036B00070BD1F4A1068002805D00268934226D0CA
:1036C000C0680028F9D11B4B1868002806D0236871
:1036D00002689A4224D0C0680028F9D1002DE7D0B2
:1036E0002B68002BE4D0144B1A68002AE0D0236822
:1036F0001168994205D0D268002AD9D01168994240
:10370000F9D12B681360D268002AF0D1D0E7C668DF
:103710000121FFF76BFA002ED5D030002368CCE7EB
:10372000C6680121FFF762FA002ED7D03000CEE73D
:10373000C8C80020CCC80020D4C8002070B5446F91
:103740000600002C18D06068256800280CD0FEF711
:1037500033F921000420FDF751FD002D0AD02C0083
:10376000606825680028F2D121000420FDF746FD9D
:10377000002DF4D10023736770BDC046F8B5DE4656
:1037800057464E464546E0B5002800D1ABE0574BC2
:103790001D88002D46D0564B994600234A4613807B
:1037A000544B00221E68544B1F881B789846414694
:1037B000C943524B8A461B6851499C468B4600239D
:1037C000002E1FD0140014346444954200D87EE0CB
:1037D000531C9BB297422BD85146C918C9B2715C91
:1037E000012928D002292AD0002919D09F4252D974
:1037F00063441B7D012B00D871E0D218012392B2E3
:10380000002EDFD111001431614495425FD90C784C
:10381000531C9BB2012C50D0022C4BD0002CE7D172
:103820004A461380F0BCBB46B246A946A046F8BD46
:1038300021780129D6D11A0001340123C5E7911C52
:1038400089B29F4222D963441B7D042B44D14B1C77
:10385000AB4241DAD31C9BB2002E32D08F421FD82C
:103860004446091BC9B2715C0432090292B29F42FC
:103870001DD844461B1BDBB2F35C0B43591E89B2B7
:10388000594500D91F4B43860123B9E744461B1B0A
:10389000DBB2F35CD9E741465B1ADBB2F35CA9E724
:1038A0006144097D0432090292B29F42E1D9634426
:1038B0001B7DE2E7911C89B2C5E71A0001310123A3
:1038C000A3E76144097D0432090292B2EFE7002BBD
:1038D000A8D04B461A80A5E74B461980A2E74B4675
:1038E00002321A809EE7084810F090FB1ECA0220A0
:1038F0001ACA0220E4C800201CCA0220E0C8002026
:10390000B3050000B405000074BA0110F0B5D64646
:103910004F46464605000C00C0B500285FD0C3687E
:10392000587B1A7B00021043FCF7F2FEC30751D408
:1039300001239A46FE3398462A4E336899462B89CE
:103940004B449C46E36858791A79997900021043F0
:10395000090408436146DA79120602432089801877
:10396000081A2DD4587B1A7B00021043FCF7D0FEB6
:103970005346034207D127682000FFF75DF8002F68
:1039800017D03C00D9E7EB6801201F7B5B7B1B0253
:103990001F43FCF7BDFE41463843EA6883B22768FF
:1039A00008401B0A107353732000FFF745F8002FDF
:1039B000E7D100242C60E0BCBA46B146A846F0BD71
:1039C000531AF7D54B46D21A91B268682981FDF790
:1039D00029FFEFE72000FFF713F80024EAE7024889
:1039E00010F014FB9CC7002090BA0110F0B55746A8
:1039F000DE464E464546E0B583B007000C1E0192F8
:103A000046D02D4B9B46662398462C4B99465B46E9
:103A1000E1681D684B7908798A791B020343C879EC
:103A20001204134300061843FCF776FE23890600B0
:103A30009A46E368AD1B587B1A7B00021043FCF7E3
:103A400067FE5346ED1A03231840431E98412D1A72
:103A50002AD460682568FDF7BBFF4346FB5A9842AD
:103A600027D842461B1ABB524A4623891288200097
:103A70009B184A461380FEF7DFFF4346FB5A002B94
:103A80000ED0002D01D02C00C1E7019B002B0DD0E2
:103A9000002003B0F0BCBB46B246A946A046F0BD2C
:103AA000002DF5D02C00B2E72000F2E7044810F01A
:103AB000ADFA044810F0AAFAC407002018CA022080
:103AC000E0BA0110B8BA0110F0B5DE4657464E46CE
:103AD0004546E0B5040083B0002801D100F0C3FCE6
:103AE000017D032901D800F0C1FCAB4B1B78DB063C
:103AF00054D4AA4EAA4D33882A689C466346002BAC
:103B000000D194E0217D062900D990E0636A991ADA
:103B1000012900D554E1D84367468018F84200D502
:103B20004EE1A04F7868002801D100F0D6FC9E4BF2
:103B3000994201D900F0CEFC028989B28A4201D2B1
:103B400000F0C5FC3B89521A5B1A3B8193B2984640
:103B500043898B420BD2002294464246C91A6346DF
:103B600002814381006889B243898B42F6D3FDF715
:103B7000C7FE636AFA68190A51711902090E917138
:103B8000190E2B601371D171228DD218DB43DA42EA
:103B900000D454E2200002F007FB50E06023C35A37
:103BA0007F4D9946836D2A689A46436D981A15D4BD
:103BB000934200D151E17D4B186800934B46D346A8
:103BC000824520D17A4B1E68B37B9C46F37B6646C8
:103BD0001B02334399450CD34B4614E0734B1868D2
:103BE0000093734B1E68B37B9C46F37B66461B02B7
:103BF00033436026A3530236A75B9F4200D2A353F0
:103C000083466265A065666CB046361A23D4634E5F
:103C10003788BC46002F00D091E049465B445144B0
:103C20008B4200D1AAE1636B002B00D08BE0636A6A
:103C3000D11A0BD4D243218DCB18D34206D403B072
:103C4000F0BCBB46B246A946A046F0BD0222638B3B
:103C500013436383F3E74346DB43C34200D504E1E8
:103C6000236D1B1A00D500E104231E00628B164051
:103C7000134200D09BE14633E35A9C464823E15A65
:103C80003C27E35FE78FDB10B94640274B44E35303
:103C900043460237C31AE6539BB260648C4500D892
:103CA0009BE180200001024050424241608E01327F
:103CB0004243101C92B29A4200D9181C081880B2D4
:103CC000884200D293E14822A052E26E216F200088
:103CD000FFF78CFEE16E020020672000FFF786FEF2
:103CE000216FE0664B424B415B42238600232377E2
:103CF000002800D180E164222E4EA35A36889B19F9
:103D0000A352638B1A0500D4B2E0002900D1CCE2A3
:103D1000C9684A7908798B7912020243C8791B0471
:103D20001A4300061043FCF7F7FCE36CC01A00D5F9
:103D30009EE0638B204A194E1340638399E0636BC6
:103D4000002B00D1DFE6A16B081A00D4D6E69BB2A7
:103D50009A461A493C23E05E0988C710BFB2CB1BC4
:103D6000884651465B1A9BB2181800B219B2A08758
:103D7000002903DA4346FB1A53449BB23E27E15F16
:103D8000C0108F10C91B5B1840219BB2E3871B1822
:103D9000635200236363B1E62ACA022020CA0220CC
:103DA0009CC70020C4180020FEFF0000C4070020AC
:103DB000E0C8002018CA0220FFF7FFFFD8C8002083
:103DC000D11A00D5D5E0D14389464846218DC9187E
:103DD000C14200D5DEE6934200D12FE10023676F98
:103DE0009846531E002F00D164E2B44616004246A6
:103DF000A84601940093F96848790B7900020343BF
:103E00009A4650468B791B040343C8790006034346
:103E1000B34200D1F3E0002A33D0D0680479A3463E
:103E200044792402A2465C4655462C43A246847936
:103E3000C0792404A34654465D4600062C43204323
:103E4000009C201A03D44846C34200D43FE238689D
:103E50003A00002823D00700CDE7B94B186800933B
:103E600053461B1A00D4A9E6BBE6200002F09CF9D9
:103E7000B44E636B002B00D075E033882A689C46F3
:103E80003CE6F21AE3D5B048019CFEF7E3FD0028BA
:103E900000D17FE660673900FFF738FD7AE632002F
:103EA00045466646019C9B1A00D473E6487B0B7B13
:103EB00000021843FCF72CFCC30700D56AE6A248B1
:103EC000FEF7C8FD3860002800D163E6F8682A686C
:103ED000437901791B020B43817909040B43C179B2
:103EE000090619433B895B18D31A00D5C1E2636AFE
:103EF0003188591A238DC918891A00D44AE63B68BB
:103F0000DB68587B1A7B00021043FCF701FCC307F7
:103F100000D5BBE23A68218D2B685068C91A636AE4
:103F20009C46614489B21181FDF77CFC3B681F8986
:103F3000DB68587B1A7B00021043FCF7E9FB0300A7
:103F4000032003405A1E9341616AFB188C462A687D
:103F50009BB233809B18228D6244934200D119E6B4
:103F60007A4810F053F8009A1068328894462A680C
:103F7000E9E60222638B134363830BE63021635E21
:103F8000002B00DA4FE6804500D04CE64321635C0D
:103F9000FF2B00D1F2E10133DBB26354032B00D9D4
:103FA000ECE100D03FE6200001F0C0FF61E79A435A
:103FB0004A2362830022E15A023BE1522233E25259
:103FC0003C26A35FE68FDB109B194026A353434694
:103FD0000236C31AA2539BB260646A20225AD318D5
:103FE0009BB29A421ED88B421DD223526DE601220B
:103FF00048235242E25268E66833E0527BE6524878
:1040000090463B890289019C9A4200D8C2E5FEF79E
:1040100021FD002800D1BDE54346002B00D139E742
:10402000186038E74A4B6A225B1AA352638ECB189A
:104030009BB28B42DBD3223AA35246E6424F3B89E6
:104040009846FB68587B1A7B00021043FCF760FB24
:10405000032303405A1E934143449BB23380228D75
:10406000934200D956E1616F002900D12BE1FB6832
:10407000587B1A7B00021043FCF74AFBC3076DD440
:10408000636F9846002B00D1FBE101239946013371
:104090009A46230000974446984609E0236820008A
:1040A0009B46FEF7C9FC5B46002B00D17CE15C46D9
:1040B0002A68338893469C46DC446746E268517917
:1040C000107909020143907900040143D079000678
:1040D000014320894018381A00D55AE1507B137BE0
:1040E00000021843FCF714FB4B460342D6D0009B5A
:1040F000DB68587B1A7B00021043FCF709FB534630
:104100000342CBD1009FFA68537B107B1B02034311
:104110009B460120FCF7FCFA5B46FF21FA6803434B
:1041200098B20B401373030A53733B899B46FCF709
:10413000EFFA032303405A1E93415B443380ADE7FB
:10414000C407002020CA0220C418002068BB011048
:10415000FFFF000003686367FEF76EFC606F0028D6
:10416000F8D12A6833889446228D9C446146616266
:10417000934200D9A8E1D31A23852000FEF782F8E4
:104180007B681A89002A03D0D54A136000237B601C
:10419000FB68587B1A7B00021043FCF7B9FAC3078F
:1041A00004D52021CF4A13780B431370666F002E7D
:1041B00072D0CB4B03279946CA4B98461FE0FDF7B8
:1041C00025FC00237360F368587B1A7B00021043C0
:1041D000FCF79EFAC3070AD5434620221B781343F7
:1041E00042461370237D042B01D1033323753368BA
:1041F00030006367FEF720FC666F002E4CD0F1683C
:1042000048790B798A79000218431204CB7910435C
:10421000626A1B06034393423ED12B603389487B7D
:104220009A460B7B00021843FCF772FA3840431E93
:104230009841636A5344C018238D60629A4633895B
:104240009B46F368587B1A7B00021043FCF760FA28
:104250003840431E98415844824500D231E13389A9
:104260009A46F368587B1A7B00021043FCF750FA19
:104270003840431E9841238D5044181A2085200051
:10428000FEF700F871680B89002B9CD04B4618682C
:10429000002894D1196094E70122638B1A420ED052
:1042A0009343022213436383C9E4002800D141E50C
:1042B000C1682EE58C48FEF7CDFB60676AE40122F9
:1042C00013436383BBE429688C469C444EE78648CD
:1042D0004546019C9046FEF7BDFB061E00D159E401
:1042E0004346D868296842790379857912021A43CE
:1042F000C3792D042A431B06134342461289D21860
:104300008A1A71D44346390030001E60FFF7FEFA66
:10431000FFF740FCFB68587B1A7B00021043FCF758
:10432000F7F9C30749D4FB68587B1A7B0002104396
:10433000238D3B81FCF7ECF93989830702D50139DC
:1043400089B239817868FDF76DFA3B899846FB6838
:10435000587B1A7B00021043FCF7DAF90323034071
:104360005A1E9341434429689BB23380228D5818CA
:10437000616A5118884200D175E6F1E54823E25A96
:10438000638ED3189BB29A4200D9584B4822A3524D
:1043900009E64246A04614006246009F8A1A2BD4C2
:1043A00042466267228DE1E62A68338894460022FD
:1043B0004446009F90469C44F2E7FB681A7B5B7B77
:1043C0001B02134318009846FCF7A2F93E2318403D
:1043D000FCF79EF94246464B13400343FA6898B2F5
:1043E0001373030A5373A3E7C91A434689B2586883
:1043F0001981FDF717FA85E75B46C91AFB68398111
:10440000587B1A7B00021043FCF782F9830702D520
:104410003B89013B3B8139897868FDF703FA3B8989
:104420009946FB68587B1A7B00021043FCF770F931
:10443000032303405A1E934142464B44D1689BB22A
:1044400033804A790879120210438A79C9791204B3
:104450000243090611432A688C469A188A429FD063
:1044600024480FF0D3FD24480FF0D0FD23480FF06F
:10447000CDFD511A89B278683981FDF7D3F92A68E0
:1044800035E52A68338894469C4489E73B68DB68B5
:104490001A7B5B7B1B02134318009846FCF738F924
:1044A0003E231840FCF734F984464046104B3A68E6
:1044B000034060461843D16883B21B0A08734B73EC
:1044C00029E50F480FF0A2FD0E480FF09FFD0E48A2
:1044D0000FF09CFD0D480FF099FD0D480FF096FD73
:1044E00090C700202ECA0220C4180020FFFF000041
:1044F000FFC0FFFFA0BB011000BB01101CBB0110DF
:10450000FCBB0110DCBB011058BB011048BB011003
:1045100038BB0110F0B5DE4657464E464546E0B57D
:1045200004008DB0002801D100F043FD7A22884DAF
:10453000AB5A0133AB52874B426898461A604389A5
:10454000132B11D88222AB5A0133AB527E22AB5AC5
:104550000133AB522000FDF72FFA0DB0F0BCBB4683
:10456000B246A946A046F0BD7B4F3968786907F08E
:10457000EDFF002815D1F0237A691340E02B10D00D
:1045800039003B00143122892000009110330621AC
:10459000FCF78CFB061E09D08022AB5A0133AB52CC
:1045A000D4E78822AB5A0133AB52CFE743461B68AE
:1045B000587B1A7B00021043FCF7AAF8010B890014
:1045C000C9B21329BED923898AB28B42BAD3130048
:1045D0006248143B9BB20380814661480660824674
:1045E0006089904200D30AE22368002B01D100F0D9
:1045F000DEFD14212000FDF783F96689594B310057
:104600001E804B461B88200099469B1B9BB29B46F5
:10461000FDF776F9206843895B4500D292E753465F
:10462000426859461A60FDF76BF94A462389F31828
:104630009B1A62899BB22381002A01D000F0BDFD44
:10464000226812899A4201D000F0B4FD43461E68E8
:104650007078337800021843FCF75AF843463070FC
:10466000000A70701E68F078B37800021843FCF7F7
:104670004FF84346B070000AF0701E6872793079C6
:10468000B37912020243F0791B041A430006104367
:10469000FCF742F8030A7371030CB371030EF37154
:1046A000314B3071186043461E68727A307AB37AA3
:1046B00012020243F07A1B041A4300061043FCF76F
:1046C0002BF8030A7372030CB372030EF372274BB9
:1046D0003072186043461E68F07BB37B00021843BB
:1046E000FCF716F84346B0731B68000AF073587B5A
:1046F0001A7B00021043FCF70BF8C3B208933F2368
:104700001B4A03400693137023890593820700D147
:104710007BE118495A1C92B20A9209910A8093428D
:1047200000D90FE7144B1E680B96002E01D100F044
:104730003DFC7B6800209946434619683B699A46D0
:104740007B6907933C239C464B46A14604931BE0A0
:10475000FC180020E0C80020D41800201ECA022047
:10476000E4C800201CCA02209CC70020C407002007
:104770002ACA022020CA0220C8C80020F3683000DC
:10478000002B00D1E7E01E00337D002B01D100F0AB
:1047900019FC0A2B01D100F012FC012B01D100F011
:1047A0000BFC327A002A06D06446049B1B5D013361
:1047B000DBB29A42E2D14B780C78328B1B02234356
:1047C0009A42DBD18B78F28A9B465C46CB781B02FF
:1047D00023439A42D2D173685345CFD13368079AA5
:1047E0009342CBD1F3684C469E4201D100F0C3FC0A
:1047F000002801D100F018FCC360914A0B9B1660A1
:10480000F3609E4201D100F0BCFC00238D4F059A5D
:104810003B603A818C4A7C60136092468B4AF96017
:10482000137091468A4A1380089B93461B0703D551
:104830000122637B13436373B36F002B10D03000EE
:10484000FEF7ACFD0D3000D1DAE1B36F002B04D0E0
:10485000099B1B88002B00D0D2E17E4B1B7806936E
:10486000069904230A007C4C1A4026600B4200D1B2
:1048700095E1337D022B00D1FAE17849726A09682B
:104880008A4200D14FE38B1A07D4338D521ADA4291
:1048900003D40223728B134373834B461978082386
:1048A0000B40002B00D0F3E15B461A88002A0DD0A4
:1048B0008023F358002B04D03100306998470D3025
:1048C0003DD000235A4613804B46197810230B42E3
:1048D00000D02EE352461268002A19D0B16F002989
:1048E00001D000F07FFC718B0B4200D081E3842368
:1048F000F55831000023002D00D19BE33069A84713
:1049000003000D331BD0002802D053461B68B36749
:104910004A4620231278134206D0B26F002A00D1F3
:1049200053E3517B0B4353734A46002312782360B1
:104930001033134200D0FCE2300001F05FFC002590
:104940005346786825601D60002800D105E6FDF714
:1049500033F87D6001E64C46414B186800285BD077
:104960007B689C463B6966469A467B69A4469B46A3
:1049700002E0C06800284ED0037D0A2B00D072E30D
:10498000047A002C05D03C23F35C0133DBB29C425B
:10499000EFD14B780C781B022343048B9C42E8D167
:1049A0008B7899464A46CB781B021343C28A9146BC
:1049B0009A42DED143685345DBD103685B45D8D1C9
:1049C000089B260064465A0700D5C3E59B0700D420
:1049D0004CE3224B1A68436AD11A05D4018D9B1A05
:1049E000CB4201D400F0EFFB0A9B002B00D1B1E5D4
:1049F0000223428B1343438301F000FCAAE5194ACA
:104A000020001380FCF77CFF20E61A00164B0A9268
:104A100009931A8086E66446144B1E689B460596E9
:104A2000002E00D1F7E07A693C2091468446484642
:104A30007B6800229A46A146069304901EE0C04679
:104A4000C8C80020C418002090C700202ECA022029
:104A500018CA02202ACA0220D0C800209CC7002001
:104A6000DCC800201CCA022020CA0220D4C80020B2
:104A7000F3683200002B00D1CCE01E00307A002811
:104A800006D0534664461B5D0133DBB29842EFD13A
:104A9000CB7888781B020343F08A9842E8D13068CB
:104AA000049CA04201D00028E2D14C46002A00D14B
:104AB0005AE2F068D060059AF2605A461660089A89
:104AC000500700D546E5D20600D554E2089B9B0767
:104AD00000D43FE5707DFEF775F98146002800D1CE
:104AE000ACE279693B6901604360F38AC382434663
:104AF0001A68537811781B020B4303830323037551
:104B0000D54B1B68049301334362C362FEF798FDE3
:104B10004B464A46986518655864D865CE4B1B6865
:104B2000013B53654B463269DE671A610C22737A8A
:104B300013404A465372337A1372C84B1B6804936E
:104B40004B46049ADA604A46C44B1A6001F042FFB1
:104B50000122C34B48461A70FEF710FE43461A68FE
:104B6000D37B917B1B020B431A0413434A46151D4A
:104B700013662800568E07F0BFF92A0001003000A6
:104B8000FEF772FD4B4612215886484601F0A0F808
:104B9000002800D061E2484601F030FBDAE408006A
:104BA00002231940034200D182E0337D023B012BF6
:104BB00000D9D6E110210800738B1840194200D0AB
:104BC000EEE1A84B1B683362A223F0523000FEF7DF
:104BD000D5FD337D9A1E012A00D95EE6032B00D055
:104BE0008EE09D4A736A1268013B934200D054E6FE
:104BF000300001F04DF94B46197808230B4050E680
:104C0000738D002B00D1A2E17E22AB5A964C01336A
:104C1000AB5294E64C46487B0B7B00021843FBF7F3
:104C200077FD430700D595E48822AB5A0133AB5298
:104C30000A3AAB5A0133AB5243461E688B4B099A72
:104C400018001188844A7578126837788A182D02FE
:104C500087493D431438096840680295F578B7786C
:104C60002D023D4301951D1F009501F005FA71E4E9
:104C70007F4B326D1B689A4200D00EE64B460822ED
:104C80001B7813434A4613700122738B934373833B
:104C90009023F358002B03D00E21306949429847E6
:104CA00031006E48FDF73EFF3000FDF715FA46E68D
:104CB00010221000738B18401A4200D04BE1694B50
:104CC0001B683362A223F0523000FEF757FD337D9C
:104CD000092B00D9E1E5674A9B00D3589F46300075
:104CE000FEF7F2FE4B4619788B0600D4D7E5022377
:104CF000728B134373830723337501330B40D0E565
:104D00001223069A1340122B00D1D4E1069BDB0636
:104D100000D4C2E54346504A1968099B12681B88B3
:104D200008789A184B781B0203430293CB78887853
:104D30001B0203430193504B4D49009330004B4BF2
:104D4000096801F025F94223F35C052B00D9A4E59D
:104D500000233000338601F099FC4B461978082374
:104D60000B409EE53000FEF7AFFE1021434B1B7851
:104D70000B4200D191E53E4B326D1B689A4200D048
:104D80008BE5F36E002B00D087E54B464A461B7837
:104D9000194311700822134083E53000FEF794FE9A
:104DA0004B4619788B0600D479E50223728B3000CC
:104DB00013437383FDF7AAFE284B1B689E4205D15F
:104DC000E7E1DA68964200D1EEE11300002BF8D15A
:104DD0000122234B1A700A233375294B1A681E606F
:104DE000F26001F0F7FD4B46197808230B4058E5B7
:104DF0003000FEF769FE4B4619788B0600D4FFE0C1
:104E00001E4B1B78DB0605D5194B326D1B689A4289
:104E100000D11BE20223728B134373830823337583
:104E20000B403EE53000FEF74FFE144B1B78DB06CF
:104E300000D432E50E4B326D1B689A4200D02CE54F
:104E4000F36E002B00D028E53000FDF75FFE034B2A
:104E50001B689E421BD18AE19CC70020C8C8002065
:104E600030CA0220D8C80020D0C80020E81800208E
:104E7000C407002000BE0110E41800202ACA022046
:104E8000DCC80020DA68964200D199E11300002BBB
:104E9000F8D10122D54B1A700A233375D44B1A6806
:104EA0001E60F26001F096FDF7E4069BDB0600D47D
:104EB000F3E4D04B1968736CDB43CB4200D5DDE0E3
:104EC000336D5B1A00D5D9E004233375F36F002BE3
:104ED00000D191E09B69002B00D14FE1002231000D
:104EE00030699847002800D04EE13000FEF7ECFD15
:104EF0005B461B88002B02D05A46013B1380738E01
:104F0000BD485A0011009B00824200D201008B4232
:104F100000D342E19BB24822B3524B4619788B062C
:104F200000D5E4E6BBE4002B00D0A7E6B3480FF0C1
:104F30006DF8728B1A4200D0B2E68033F358002B22
:104F400000D1ADE60F21306949429847A8E630000C
:104F500001F02AF958E6A2233000F152FEF70EFCC8
:104F6000B5E60222738B96E48E2294466046AA5AD6
:104F700001322A52A3E50A980D7884464978A04A5E
:104F800009021268294301939E4B029199490093AB
:104F900009689D4B0698624401F06EF8FFF7DAFA53
:104FA000A2233000F252FEF7E9FB12E643461968ED
:104FB000D2E496480FF02AF895480FF027F8954864
:104FC0000FF024F894480FF021F8338D934A934260
:104FD00001D0013333858423F558002D00D1A3E49B
:104FE000002331001A003069A8470D3000D09BE43F
:104FF000A5E41000FCF7E0FC3000FDF7CDFE9EE4D8
:10500000874B1B78DB0600D449E47A4B326D1B6872
:105010009A4200D043E4F36E002B00D03FE4062315
:10502000337502330B403CE48E22AB5A0133AB5252
:10503000FFF7EBFB1800FEF747F961E48422AB5A57
:105040000133AB52B369002B01D1FFF783FA0100A2
:10505000853A30699847FFF77DFA00214846FDF709
:10506000C5FDFFF777FA6F480EF0D0FF089BDB070E
:1050700000D4B9E46C4B1B680362B5E44346604A54
:105080001868099B12681B8805789A1843781B02D8
:105090002B430293C37885781B022B430193594B12
:1050A00030000093584B00F073FF4B4619780823EB
:1050B0000B40FFF7F6FB4F4B1B680493736C049A8D
:1050C0000133934200D021E6736443464C4A351DB8
:1050D0001268511C7162F1621968013ACB7B887BBE
:1050E0001B02034319040B43336604233375738E89
:1050F00072652800984606F0FFFE2A00010040462F
:10510000FEF7B2FA4200708683003B4811008242EB
:1051100000D201008B4200D3BBE09BB24822B352C5
:105120001E32B35A002B00D1B0E0306F013BB352B6
:10513000002800D1A4E003683367FDF77DFC336FDE
:10514000002B00D199E000234222B35433868823F8
:10515000F358002B01D1FFF79CFB0022310030698E
:1051600098470D3001D0FFF794FBFFF7E8FB2F4B7A
:10517000F2681A608DE62E480EF048FF2D480EF0BA
:1051800045FF2D480EF042FF0D3001D1FFF7D7FB50
:1051900032E7264BF2681A601AE617490B008A427A
:1051A00000D8B8E693B2B6E6F268DA6010E62348B3
:1051B0000EF02CFF22480EF029FF22480EF026FFA9
:1051C000F268DA6065E60A9B0A499C464B46019301
:1051D0000C4B0296009309680B4B624400F0D8FE1A
:1051E000FFF7B8F918480EF011FFC04630CA022088
:1051F000DCC80020C40700201C11000078BD01108D
:105200009CC70020E4180020E818002020BC0110F2
:10521000C8BC01109CBC011074BC0110A02D000082
:105220002ACA022048BD0110D8C80020C8C80020E2
:10523000F0BC0110C4BD01101CBD011038BC011030
:1052400054BC011048BC0110E4BD0110F36E002BEA
:1052500000D0DFE5728B0233134373833000FDF718
:1052600055FC114B1B689E4204D180E7DA689642D8
:10527000A6D01300002BF9D10BE601235B4265E7B2
:10528000F06E00280CD00368F36656E707480EF06E
:10529000BDFE07490B008A4200D83FE793B23DE7C5
:1052A00004480EF0B3FEC046C8C8002098BD0110E7
:1052B0001C110000B0BD01101021024A13780B43ED
:1052C000137070472ECA0220F0B54F464646D646A8
:1052D000C0B5994608AB80460E0092461F7800285C
:1052E0005FD000295AD00425BB0004201D40FBF7E5
:1052F00067FF041E4ED00023877203604660338927
:10530000AAB2AB4250D39B1A038114213000FCF7A0
:10531000CDFA061E34D163685F684346E760D88AD9
:10532000FBF7F6F943463870000A7870188BE76887
:10533000FBF7EEF9B870000AF8704846E768FBF72B
:10534000EBF9030A7B71030CBB71E3683871984673
:10535000A023DB019C465346000EF871A80260446E
:105360001843FBF7D5F943461873000A5873E368EE
:105370009E74DE742000E0BCBA46B146A846F0BD7B
:105380008C220B4920008B5A002401338B52FDF7ED
:1053900053FBEFE73000FCF70FFBEBE705480EF09F
:1053A00035FE05480EF032FE04480EF02FFEC046D2
:1053B000FC18002048BE011028BE01106CBE011070
:1053C000F0B54746CE4680B505000C0090461E005D
:1053D00085B000294DD0002838D0007A00282BD184
:1053E000180006F089FD071E2AD063680621994639
:1053F0002000434622890096FBF758FC4B46187460
:10540000000A5874EB7AAD7A78211B48425A01326F
:105410004252062200950192414632002000029736
:1054200006F00EFF05002000FCF7C6FA280005B0C4
:10543000C0BCB946B046F0BDFCF7DAF8071ED4D1BF
:1054400004252000FCF7B8FA6D42EFE7180006F0DB
:1054500053FD071EF4D04346062120002289009602
:105460006568FBF723FC2874000A6874FF23002595
:10547000CAE702480EF0CAFDFC18002084BE0110E5
:10548000F8B54E464546DE465746E0B505001600DF
:1054900000284ED0A022436A14319846C38A89B2AC
:1054A0009A46038B92009946438D22209B46FCF737
:1054B0000DF9071E36D04389132B3DD94468504659
:1054C000FBF726F92070000A60704846FBF720F9C8
:1054D000330AA0702671000A6371330C360EE07037
:1054E000A3714046E671FBF717F9030A2072637255
:1054F000030C000EA372E0721148FBF709F9207348
:10550000000A60735846FBF703F900236A6AA07328
:105510009446000AE07323746374A374E3746B8D80
:105520006344EB623800F0BCBB46B246A946A046D5
:10553000F8BD04480EF06AFD03480EF067FDC04652
:1055400010500000B0BE0110D8BE0110F0B54546A5
:10555000DE4657464E46E0B58BB080460491019238
:105560000993002800D1EFE16223C35A428E5B0801
:10557000191C934200D9C7E08BB20093002B00D1D5
:10558000C0E0049B002B00D1DEE143461B7D072BCE
:105590000CD0023B022B09D90B256D4228000BB021
:1055A000F0BCBB46B246A946A046F0BD019A002A0F
:1055B00000D1C2E064234146CB5A934200D2CBE1F2
:1055C0006623CB5A02931F2B00D9C0E1002B00D1D8
:1055D000A1E00B6F002B00D1A0E14346DB6E9A46A1
:1055E000002B00D1C8E11A001B68002BFBD1110071
:1055F0000892927A9A46920004331A400B890098D6
:105600009918884200DAC5E168214046405A07905F
:10561000002800D196E00099CB1A9B1A9BB29842C1
:1056200000D9BAE1019A051C904200D970E1AAB2F2
:105630009A4200D96AE1079BADB25F1BBFB2002F4F
:1056400000D15DE1019BAB4200D0A9E1089C002D97
:1056500000D16CE1089B5E68002E1AD03389EB18EC
:1056600033813368002B06D01E003389EB18338159
:105670003368002BF8D1736870899C462A0004991E
:10568000604410F0E7FB7389EB1873813368002BDB
:10569000EAD1089A1389ED18158168234246D7523A
:1056A0005246089B1A60019943468C464246DB6D80
:1056B0006344D3656423D25A521A4146CA52029AAD
:1056C0000233CA52002A03D00B6F002B00D134E101
:1056D000002C00D12FE1E3680025002B00D15DE70D
:1056E000099A920700D559E7587B1E7B00020643B2
:1056F0000820FBF70DF83043E26883B21B0A1073F1
:1057000053734BE700923CE7111C8BB20093002BC4
:1057100000D036E7F6E70B6F002B00D029E1CB6E07
:10572000002B00D025E16823CB5A0293002B00D038
:1057300039E100230793089308E066234246D35AD1
:1057400002934AE7019B002B00D12FE10023694619
:10575000009A9A460393079E019B4A830BE05346A7
:10576000002B00D102E11C60F619019BB6B2B342D6
:1057700000D87FE0A2469B1B009A1F1C9BB293425D
:1057800001D96B465F8BA022362000999200FBF76F
:105790009DFFBFB2051E00D1A7E003689B46002B0A
:1057A00000D0E0E043893A0005933B043B4383602B
:1057B000049B4068991910F04DFB2800FCF708F98C
:1057C000029B9C46604483B20293202B00D990E058
:1057D0004346DB6D04209946FBF7F2FCB144041EFE
:1057E00000D186E05B464560837203602B891421FB
:1057F00003812800FCF75AF8051E4ED163685B68E8
:105800009B46E3604346D88AFAF782FF5B461870EE
:10581000000A5870E3689B464346188BFAF778FFF6
:105820005B469870000AD870E36848469B46FAF7D2
:1058300073FF5B465A461871030A5371030C937148
:10584000000EE368D071A0209946C001FAF760FF0E
:105850004B461873000A5873E3689D74DD74039B0C
:10586000002B00D07BE7F619019BB6B20394B3423C
:1058700000D97FE7039B9A46059BDF1B079BBFB2BE
:10588000002B52D168234246D752089B002B00D0F0
:1058900006E743465246DA6605E78C22039B464DEF
:1058A0009A46AB5A20000133AB52FDF7C5F8434688
:1058B00080225B8B1343424653838422AB5A0133CD
:1058C000AB525346002B02D05046FDF799F86623A1
:1058D0004246D35A002B05D0136F002B02D1D36E52
:1058E000002B2ED001256D4258E6039B324D9A467F
:1058F000DDE7039B28009A46FCF75EF82E4DD6E7BD
:10590000019B0795AB4200D920E79FE61D1C92E65C
:10591000151CAAB29A4200D88DE6F7E7CB6E002B91
:1059200000D060E625480EF071FB1D0092E668236A
:105930004246D752B4E6002530E6CB6E002B00D0AD
:10594000C6E61F480EF062FB10256D4226E6842253
:1059500019498B5A01338B52434680225B8B134388
:1059600042465383BEE717480EF050FB16480EF030
:105970004DFB16480EF04AFB68234246D25A002AD5
:1059800011D1019A002A00D0D3E64146019A1400B1
:10599000CA527EE70E480EF039FB0E480EF036FB79
:1059A0000D480EF033FB0D480EF030FB4346019AD4
:1059B00000245A5274E6C046FC18002008BF0110AB
:1059C00028C0011000C0011014C0011044BF011014
:1059D00078BF011090BF0110B0BF0110D0BF0110FF
:1059E000F0B54546DE4657464E46E0B50C0005008C
:1059F00083B0002800D1C3E0C66E002E00D1BCE009
:105A0000002900D1BFE033899A468B4200D8A8E034
:105A1000438E8B4200D2B9E0B37AA0229900994616
:105A200004230B409B4653461F1B5B46BFB2F9182D
:105A3000362089B29200FBF749FE804600281ED02E
:105A4000736832891B8941689B1AE3183A007068B1
:105A50009BB25944FCF7D4F8B84218D084224D497F
:105A600040468B5A01338B52FBF7A6FF0120404280
:105A700003B0F0BCBB46B246A946A046F0BD8422A6
:105A80000120444940428B5A01338B52F0E7F368BE
:105A9000587B1A7B00021043FAF73AFE08230200F3
:105AA0001A409346C7B218425DD13F2001220740F9
:105AB00001233B4201D093469F43F1684B7908791B
:105AC0008A791B020343C879120413430006184362
:105AD000FAF722FE4A4641462318009228005A4609
